:020000040800F2
:100000000804002065010008E9020008B3010008A7
:10001000E5020008AD01000891030008000000009F
:100020000000000000000000000000007701000850
:10003000B1010008000000007B0100087D010008FC
:100040007F0100087F0100087F0100087F01000890
:100050007F0100087F0100087F0100087F01000880
:100060007F0100087F0100087F0100087F01000870
:100070007F0100087F0100087F0100087F01000860
:100080007F0100087F0100087F0100087F01000850
:100090007F0100087F0100087F0100087F01000840
:1000A0007F0100087F0100087F0100087F01000830
:1000B0007F0100087F0100087F0100087F01000820
:1000C0007F0100087F0100087F0100087F01000810
:1000D0007F0100087F0100087F0100087F01000800
:1000E0007F0100087F0100087F0100087F010008F0
:1000F0007F0100087F0100087F0100080000000068
:100100007F010008000000007F0100087F01000857
:100110007F0100087F0100087F0100087F010008BF
:100120007F0100087F0100087F0100087F010008AF
:100130007F0100087F0100087F0100087F0100089F
:100140007F0100087F0100087F0100087F0100088F
:10015000DFF80CD000F018F800480047D909000873
:10016000080400200648804706480047FEE7FEE7EF
:10017000FEE7FEE7FEE7FEE7FEE7FEE7FEE7FEE757
:10018000ED02000851010008064C074D06E0E0684A
:1001900040F0010394E8070098471034AC42F6D3CE
:1001A000FFF7DAFF340F0008540F000800BFFEE726
:1001B000704700BFFEE700002DE9F0472A480068BD
:1001C0002A490840B0F1005F47D14FF0010800F024
:1001D000C5F88146264800F00FF9044623E0224680
:1001E0002449214800F00BF900250CE01E48285C4A
:1001F0002049695C884205D01FA000F0D5F84FF077
:10020000000802E06D1CA542F0D300BFB8F1000F5A
:1002100005D021A000F0C8F8002000F0BBF8144879
:1002200000F0EAF80446B9F1000F04D0B4F5E83F55
:1002300001D8002CD3D11EA000F0B6F80A484668B9
:100240004FF480473946400300F0D2FB0649086866
:1002500080F3088800BFB04700BF1CA000F0A4F8DE
:100260000120BDE8F0870000004000080000FE2FDC
:1002700000E003080010020861707020646174617E
:1002800020636865636B20646F65736E27742070EC
:100290006173730D0A0000004F544120557067725E
:1002A00061646520537563636565640D0A00000031
:1002B0004E6F77204A756D7020746F2041707069A1
:1002C000636174696F6E0D0A00000000496E76610B
:1002D0006C696420537461636B204164647265735C
:1002E000730D0A0000BFFEE77047000008B518480C
:1002F000006840F47000164908601648006840F035
:100300000100144908600846406840F080004860D9
:100310000020009002E00098401C009044F620610C
:1003200000988842F7D300200A494860C86208460E
:10033000006809490840074908604FF41F008860B9
:100340000846006820F48020086000F0C1FC08BD69
:1003500088ED00E000100240FFFFF6FE38B50A48C5
:1003600000900A4800F048F804460098844209D0FA
:10037000002000F00FF804226946044800F03FF81E
:10038000002038BD0120FCE7DDCCBBAA00E8030853
:1003900000BFFEE701B504226946024800F02FF8CD
:1003A00008BD000000E00308014A024900F013B84C
:1003B000F90800080000002002E008C8121F08C168
:1003C000002AFAD170477047002001E001C1121FD6
:1003D000002AFBD170472DE9F04116460F4604462E
:1003E000002503E03946B047641C6D1C20780028C6
:1003F000F8D12846BDE8F0810146086870472DE92C
:10040000F84F06460C4615464FF0000AD146CB463B
:100410000020009000F0EEF906F00109A6EB0906B5
:10042000F70A03E0F80200F06FF97F1C7019B7EBD0
:10043000D02FF7D9B9F1000F1CD02078000200901E
:100440003046009900F0EAF8804640F2053000F0AE
:10045000D5F84FF4417000F0D1F840F2023000F0CE
:10046000CDF8B8F1000F01D0B2466FE0B61CA5EB95
:100470000905641C002728E014F82710B800401C68
:10048000205C41EA0021B800801C205C41EA004168
:10049000B800C01C205C41EA006B5946304600F0B1
:1004A000CBF98046361D40F2053000F0A7F84FF436
:1004B000417000F0A3F840F2023000F09FF8B8F16C
:1004C000000F01D0B24641E07F1CB7EB950FD3D3AC
:1004D00005F00300C0B305F00300012804D0022892
:1004E00006D0032816D10AE0681E14F800B014E004
:1004F000A81E215C681E205C41EA002B0DE0E81E6E
:10050000215CA81E205C41EA0021681E205C41EAB3
:10051000004B02E04FF0000B00BF00BF59463046D1
:1005200000F08AF9804640F2053000F067F84FF499
:10053000417000F063F840F2023000F05FF8B8F16B
:10054000000F02D0B24601E0FFE700BF00F0C6F89E
:100550005046BDE8F88F00B50346012200BF00F009
:100560000BF802465B1E012A01D1002BF7D1012AAC
:1005700000D10422104600BD00200A49C96801F0DC
:10058000010109B101200CE00649C96801F0100120
:1005900009B1032005E00349C96801F0040101B174
:1005A000022070470020024000B50346012200BF30
:1005B00000F00CF802465B1E012A01D1002BF7D196
:1005C000012A00D10422104600BD000000200A4983
:1005D000C96C01F0010109B101200CE00649C96CA8
:1005E00001F0100109B1032005E00349C96C01F0D5
:1005F000040101B10220704700200240064A02EBCC
:100600009011096800F01F0301229A401143024B28
:1006100003EB9012116070470020024070B5044651
:100620000D4600262A480088B0F5007F35D92948B4
:10063000844219D24FF47020FFF78DFF0646002E3A
:1006400043D12548006940F0010023490861258015
:100650004FF47020FFF77FFF06461F48006920F027
:1006600001001D49086130E04FF47020FFF79CFF46
:10067000064656BB1848006D40F001001649086553
:1006800025804FF47020FFF78FFF06461248006D5B
:1006900020F001001049086517E04FF47020FFF7C3
:1006A0005AFF06468EB90C48006940F001000A491D
:1006B000086125804FF47020FFF74DFF064606487D
:1006C000006920F0010004490861304670BD000057
:1006D000E0F7FF1FFFFF07080020024008480069FD
:1006E00040F080000649086106480088B0F5007FA8
:1006F00004D90846006D40F080000865704700008E
:1007000000200240E0F7FF1F30B50546364800885C
:10071000B0F5007F48D9354885421ED24FF470208D
:10072000FFF719FF0446002C5BD13148006940F007
:1007300002002F49086108464561006940F0400009
:1007400008614FF47020FFF706FF0446284800694F
:1007500020F002002649086143E04FF47020FFF7C3
:1007600023FF0446002C3CD12148006D40F00200DC
:100770001F49086508464565C06900F0020008B1D8
:10078000084645611A48006D40F040001849086568
:100790004FF47020FFF708FF04461548006D20F065
:1007A0000200134908651CE04FF47020FFF7D3FEE8
:1007B0000446B4B90E48006940F002000C490861D3
:1007C00008464561006940F0400008614FF4702020
:1007D000FFF7C1FE04460648006920F00200044904
:1007E0000861204630BD0000E0F7FF1FFFFF07084B
:1007F000002002400C48006900F0800020B10B4846
:10080000094948600A4848600A480088B0F5007FF6
:1008100009D90548006D00F0800020B10348024965
:10082000486403484864704700200240230167453C
:10083000AB89EFCDE0F7FF1F70B504460D460026EB
:100840002A480088B0F5007F35D92948844219D25A
:100850004FF47020FFF77FFE0646002E43D1254857
:10086000006940F001002349086125604FF47020C1
:10087000FFF771FE06461F48006920F001001D4980
:10088000086130E04FF47020FFF78EFE064656BB3D
:100890001848006D40F001001649086525604FF4C6
:1008A0007020FFF781FE06461248006D20F001001F
:1008B0001049086517E04FF47020FFF74CFE06461C
:1008C0008EB90C48006940F001000A4908612560B2
:1008D0004FF47020FFF73FFE06460648006920F0FF
:1008E000010004490861304670BD0000E0F7FF1FB9
:1008F000FFFF07080020024070B504460D46214660
:10090000054800F07FFA00BF0621034800F0CBFA4B
:100910000028F9D0002070BD00380140F0B5044631
:1009200016460025002201F00F0501F0100747B11F
:10093000042E05D145F00305E76B1F43E76300E094
:10094000354300201EE0012787401F40C7B12268C1
:100950004FEA800C0F2707FA0CF7BA43870005FA15
:1009600007F73A43282904D1012787401F406761D0
:1009700005E0482903D1012787401F4027612260F5
:10098000471CB8B20828DED3082022E001278740A0
:100990001F40E7B16268A0F108074FEA870C0F27F4
:1009A00007FA0CF7BA43A0F10807BF0005FA07F7EA
:1009B0003A43282904D1012787401F40676105E099
:1009C000482903D1012787401F4027616260471CE7
:1009D000B8B21028DAD3F0BD10B572B6034800F0F3
:1009E000C3F9FFF7E9FB002010BD0000C0C62D00D1
:1009F000024A0A400243024B1A60704780FFFF1F01
:100A000008ED00E02DE9F04F8CB0074600200A9079
:100A10004AA090E8004CC068CDE905BECDF810A012
:100A200007900FF21C1ADAE9000ACDE9020A0FF268
:100A3000101ADAE9000ACDE9000A44484068C0F318
:100A400081000B900B9820B1012804D002283FD1DF
:100A500003E03F4A3EE03E4A3CE03C48406800F448
:100A6000803CBCF5803F12D13848C06A00F0804815
:100A7000B8F1000F01D1364C00E0364C33484068E5
:100A800000F40039B9F5003F02D1334C00E0324C9C
:100A90002E484068C0F383412C48406800F0006055
:100AA00008B141F010012948406800F0804008B1C9
:100AB00041F020010F2901D2891C06E00F2903D340
:100AC0003E2901D8491C00E03F2104FB01F201E06E
:100AD0001F4A00BF00BF1D484068C0F3031504A8AB
:100AE000465D22FA06F319484068C0F3022502A8C1
:100AF000465D23FA06F0099014484068C0F3C22509
:100B00001DF8056023FA06F0089037B1012F06D0D2
:100B1000022F06D0032F0AD106E00A9208E00A93BA
:100B200006E009980A9003E008980A9000E000BFE8
:100B300000BF0A980CB0BDE8F08F00000000000074
:100B4000000000000102030406070809001002402B
:100B500000127A00006CDC0200093D00064A02EB3C
:100B60009011096800F01F0301229A401143024BC3
:100B700003EB90121160704700100240064A02EB2E
:100B80009011096800F01F0301229A409143024B23
:100B900003EB90121160704700100240064A02EB0E
:100BA0009011096800F01F0301229A401143024B83
:100BB00003EB9012116070470010024000200021EA
:100BC0003F4A126842F480323D4B1A6000BF401C1D
:100BD0003B4A126802F4003119B94FF6FF72904295
:100BE000F5D1374A126802F400320AB900BFFEE7B5
:100BF000334AD26942F08052314BDA61314A12688D
:100C000042F440422F4B1A602D4A52682C4B5A60D6
:100C10001A4652685A601A46526842F480625A6014
:100C20001A46526822F440325A601A46526842F418
:100C300040325A601A465268234B1A40204B5A6081
:100C40001A465268214B1A431D4B5A601A461268C5
:100C500042F080721A6000BF194A126802F00072F6
:100C6000002AF9D0174A126842F48032154B1A60F4
:100C700000BF144A526802F48032002AF9D0114AA7
:100C8000126842F400320F4B1A6000BF0D4A5268DE
:100C900002F40032002AF9D0094A526822F0030215
:100CA000074B5A601A46526842F002025A6000BF6F
:100CB000034A526802F00802002AF9D07047000087
:100CC0000010024000700040FFFFC3B7000034086E
:100CD00010B5FFF773FF10BD2DE9F04704460D4630
:100CE0000027B846B94600261D49601A8C421CD020
:100CF00006DC1C48204470B1B0F5806F1FD10FE0B6
:100D0000B0F5806F16D0B0F56C4F18D10320FFF707
:100D100079FE074614E00220FFF774FE07460FE055
:100D20000220FFF76FFE07460AE00220FFF76AFE87
:100D3000074605E00220FFF765FE074600E000BF1A
:100D400000BF07EB5500B0FBF5F64FF6F07006EA72
:100D5000000806F00F0948EA0900A060BDE8F08726
:100D6000004C004000BCFFBF10B5044640F20260DA
:100D7000FFF7F4FE4FF4C060FFF7F0FE40F20E60A4
:100D8000FFF7ECFE4FF40073032218211B48FFF716
:100D9000C5FD4FF48063032204211848FFF7BEFD10
:100DA000174800F033F821461548FFF795FF00215A
:100DB000134800F0B7F80021114800F0A3F8002113
:100DC0000F4800F08FF800210D4800F083F8002153
:100DD0000B4800F077F80421094800F08BF808214F
:100DE000074800F097F8064800F058F800BF0721C0
:100DF000034800F058F80028F9D010BD0008014061
:100E000000380140C1F308024260704710B5044643
:100E10002049601A8C4228D006DC1F48204490B13B
:100E2000B0F5806F33D117E0B0F5806F26D0B0F504
:100E30006C4F2CD140F20E30FFF7B0FE40F20E3076
:100E4000FFF79CFE24E040F21140FFF7A7FE40F2BE
:100E50001140FFF793FE1BE040F21240FFF79EFEA9
:100E600040F21240FFF78AFE12E040F21340FFF713
:100E700095FE40F21340FFF781FE09E040F2144076
:100E8000FFF78CFE40F21440FFF778FE00E000BF51
:100E900000BF10BD004C004000BCFFBFC16841F462
:100EA0000051C160704710B5024602EB9110006816
:100EB00001F01F040123A340184008B1012010BD18
:100EC0000020FCE70A460021416921F4007111432A
:100ED000416170470A460021416921F48071114344
:100EE00041617047C26822F4C062C260C2680A43AE
:100EF000C26070470A460021C16821F00401114315
:100F0000C1607047026922F44052026102690A43DB
:100F1000026170470A460021C16821F008011143AF
:100F2000C1607047C26822F48052C260C2680A433E
:100F3000C2607047540F0008000000200400000049
:100F4000B8030008580F0008040000200404000043
:080F5000C803000800000000C6
:04000005080001519D
:00000001FF
