:020000040800F2
:10000000600C0020D5010008DF020008D7020008BC
:10001000DB0200088F0200089103000800000000C6
:10002000000000000000000000000000E7010008E0
:10003000D502000800000000EB010008ED010008F7
:10004000EF010008EF010008EF010008EF010008D0
:10005000EF010008EF010008EF010008EF010008C0
:10006000EF010008EF010008EF010008EF010008B0
:10007000EF010008EF01000895020008B502000832
:10008000EF010008EF010008EF010008EF01000890
:10009000EF010008EF010008EF010008EF01000880
:1000A000EF010008EF010008EF010008EF01000870
:1000B000EF010008EF010008EF010008EF01000860
:1000C000EF010008EF010008EF010008EF01000850
:1000D000EF01000851030008EF010008EF010008DC
:1000E000EF010008EF010008EF010008EF01000830
:1000F000EF010008EF010008EF0100080000000018
:10010000EF01000800000000EF010008EF01000807
:10011000EF010008EF010008EF010008EF010008FF
:10012000EF010008EF010008EF010008EF010008EF
:10013000EF010008EF010008EF010008EF010008DF
:10014000EF010008EF010008EF010008EF010008CF
:1001500000F002F800F02EF80AA090E8000C8244AB
:100160008344AAF10107DA4501D100F023F8AFF288
:10017000090EBAE80F0013F0010F18BFFB1A43F085
:1001800001031847F00D0000000E000000230024BA
:1001900000250026103A28BF78C1FBD8520728BF97
:1001A00030C148BF0B6070471FB500F0DEFE1FBDB9
:1001B00010B510BD00F031F81146FFF7F5FF00F063
:1001C00001FB00F04FF803B4FFF7F2FF03BC00F0AF
:1001D00057F800000948804709480047FEE7FEE756
:1001E000FEE7FEE7FEE7FEE7FEE7FEE7FEE7FEE7E7
:1001F00004480549054A064B70470000E102000823
:100200005101000860040020600C002060080020FC
:1002100060080020704770477047754600F02CF862
:10022000AE4605006946534620F00700854618B0E3
:1002300020B5FFF7DDFFBDE820404FF000064FF08E
:1002400000074FF000084FF0000B21F00701AC460B
:10025000ACE8C009ACE8C009ACE8C009ACE8C0092A
:100260008D46704710B50446AFF300802046BDE8C8
:100270001040FFF7A8BF00000048704700040020AE
:1002800001491820ABBEFEE726000200704700BF00
:10029000FEE7000010B502220321054800F0BFF977
:1002A00020B101220321024800F0B1F910BD000085
:1002B0000000024010B502220421054800F0AFF909
:1002C00020B101220421024800F0A1F910BD000074
:1002D00000000240704700BFFEE700BFFEE7704726
:1002E00008B51848006840F47000164908601648C0
:1002F000006840F00100144908600846406840F07A
:10030000800048600020009002E00098401C0090AF
:1003100044F6206100988842F7D300200A494860DB
:10032000C8620846006809490840074908604FF458
:100330001F0088600846006820F48020086000F0F4
:100340002FFC08BD88ED00E000100240FFFFF6FE24
:1003500010B50C490C4800F0C4FD40B109490A48E9
:1003600000F0B2FD084800680748001D0068074912
:10037000054800F0B6FD18B10449034800F0A4FD9B
:1003800010BD00000403040000380140060306000D
:1003900000BFFEE710B5044600F01AFA204600F050
:1003A0004BFC00F0E3FC10BD70B505460C46214641
:1003B000284600F08FF908B900BFFEE704EB84007F
:1003C000810005F10800405820F0010104EB840091
:1003D000820005F10800815070BD70B505460C46DD
:1003E0002146284600F076F908B900BFFEE704EB85
:1003F0008400810005F10800405840F0010104EB41
:100400008400820005F10800815070BD70B505467A
:100410000C462146284600F05DF908B900BFFEE70A
:1004200004EB8400810005F10800405820F0200111
:1004300004EB8400820005F10800815070BD70B5A6
:1004400004460D462946204600F044F908B900BF8D
:10045000FEE705EB8500810004F10800405820F01C
:10046000010105EB8500820004F1080081500021A4
:1004700005EB8500820004F10800815005EB850042
:10048000820004F10C00815005EB8500820004F12C
:100490001000815005EB8500820004F114008150AA
:1004A0006068AA000F2191400843606070BD2DE98B
:1004B000F04104460D4616462946204600F00AF94A
:1004C00008B900BFFEE705EB8500820004F11000CB
:1004D0003168815005EB8500820004F11400B16899
:1004E0008150308A81B205EB8500820004F10C0056
:1004F000815005EB8500810004F10800475827F47E
:100500007C57F1687068084371690843074305EB3D
:100510008500810004F108004750307E01280ED18B
:1005200005EB8500810004F10800405840F04001CF
:1005300005EB8500820004F1080081500DE005EB19
:100540008500810004F10800405820F0400105EBCF
:100550008500820004F108008150707E01280ED1D0
:1005600005EB8500810004F10800405840F080014F
:1005700005EB8500820004F1080081500DE005EBD9
:100580008500810004F10800405820F0800105EB4F
:100590008500820004F108008150B07E70B905EB3F
:1005A0008500810004F10800405820F0100105EB9F
:1005B0008500820004F1080081500DE005EB850004
:1005C000810004F10800405840F0100105EB85005F
:1005D000820004F108008150BDE8F08170B5044646
:1005E0000D4616462946204600F074F808B900BFAB
:1005F000FEE705EB8500810004F108004058304318
:1006000005EB85018A0004F10801885070BD10B522
:1006100043688C0002FA04F42343436010BD70B5B4
:10062000034600BF00BF022A04D0042A11D0082AC2
:100630002DD11DE018688E0002FA06F600EA0605C4
:1006400001EB8100860003F10800805900F00204EC
:100650001FE018688E0002FA06F600EA060501EBB4
:100660008100860003F10800805900F0040410E0C6
:1006700018688E0002FA06F600EA060501EB810012
:10068000860003F10800805900F0080401E000BF73
:10069000FEE700BF15B10CB1012070BD0020FCE7E2
:1006A00070B505460C462146284600F013F808B9F7
:1006B00000BFFEE704EB8400810005F1080040580C
:1006C00020F4804104EB8400820005F10800815091
:1006D00070BD000002460120034B9A4202D104295A
:1006E00000DD0020704700000004024008B900BF90
:1006F000FEE700210160416001768160C1604176C2
:100700000161817641617047F0B5044616460025C7
:10071000002201F00F0501F0100747B1042E05D1AA
:1007200045F00305E76B1F43E76300E03543002016
:100730001EE0012787401F40C7B122684FEA800CA6
:100740000F2707FA0CF7BA43870005FA07F73A4371
:10075000282904D1012787401F40676105E0482907
:1007600003D1012787401F4027612260471CB8B290
:100770000828DED3082022E0012787401F40E7B188
:100780006268A0F108074FEA870C0F2707FA0CF7F9
:10079000BA43A0F10807BF0005FA07F73A43282932
:1007A00004D1012787401F40676105E0482903D134
:1007B000012787401F4027616260471CB8B210289C
:1007C000DAD3F0BD4FF4E130FFF7E4FD00BFFEE700
:1007D00010B54FF4407000F073F8002211460F205E
:1007E00000F00CF8002211460E2000F007F800225D
:1007F0000A21252000F002F810BD00002DE9F0418B
:1008000003460D46164600240027A0462A480068E5
:1008100000F4E060B0F5E06F03D100BF4FF00408D2
:1008200030E02548006800F4E060B0F5C06F03D107
:1008300001274FF0030825E01F48006800F4E0603E
:10084000B0F5A06F02D10227B8461BE01A48006835
:1008500000F4E060B0F5806F03D103274FF001088A
:1008600010E01548006800F4E060B0F5407F03D167
:1008700004274FF0000805E04FF4A06000F020F8D6
:100880000227B846C7F1040005FA00F4C8F10401D4
:100890000F20C8403040044324010848C45403F0EA
:1008A0001F01012088405911890001F1E021C1F8A0
:1008B0000001BDE8F08100000CED00E000E400E084
:1008C00002490143024A1160704700000000FA0526
:1008D0000CED00E02DE9F04F8CB0074600200A90A7
:1008E0004AA090E8004CC068CDE905BECDF810A044
:1008F00007900FF21C1ADAE9000ACDE9020A0FF29A
:10090000101ADAE9000ACDE9000A44484068C0F349
:1009100081000B900B9820B1012804D002283FD110
:1009200003E03F4A3EE03E4A3CE03C48406800F479
:10093000803CBCF5803F12D13848C06A00F0804846
:10094000B8F1000F01D1364C00E0364C3348406816
:1009500000F40039B9F5003F02D1334C00E0324CCD
:100960002E484068C0F383412C48406800F0006086
:1009700008B141F010012948406800F0804008B1FA
:1009800041F020010F2901D2891C06E00F2903D371
:100990003E2901D8491C00E03F2104FB01F201E09F
:1009A0001F4A00BF00BF1D484068C0F3031504A8DC
:1009B000465D22FA06F319484068C0F3022502A8F2
:1009C000465D23FA06F0099014484068C0F3C2253A
:1009D0001DF8056023FA06F0089037B1012F06D004
:1009E000022F06D0032F0AD106E00A9208E00A93EC
:1009F00006E009980A9003E008980A9000E000BF1A
:100A000000BF0A980CB0BDE8F08F000000000000A5
:100A1000000000000102030406070809001002405C
:100A200000127A00006CDC0200093D00064A02EB6D
:100A30009011096800F01F0301229A401143024BF4
:100A400003EB90121160704700100240064A02EB5F
:100A50009011096800F01F0301229A409143024B54
:100A600003EB90121160704700100240064A02EB3F
:100A70009011096800F01F0301229A401143024BB4
:100A800003EB90121160704700100240002000211B
:100A90003F4A126842F480323D4B1A6000BF401C4E
:100AA0003B4A126802F4003119B94FF6FF729042C6
:100AB000F5D1374A126802F400320AB900BFFEE7E6
:100AC000334AD26942F08052314BDA61314A1268BE
:100AD00042F440422F4B1A602D4A52682C4B5A6008
:100AE0001A4652685A601A46526842F480625A6046
:100AF0001A46526822F440325A601A46526842F44A
:100B000040325A601A465268234B1A40204B5A60B2
:100B10001A465268214B1A431D4B5A601A461268F6
:100B200042F080721A6000BF194A126802F0007227
:100B3000002AF9D0174A126842F48032154B1A6025
:100B400000BF144A526802F48032002AF9D0114AD8
:100B5000126842F400320F4B1A6000BF0D4A52680F
:100B600002F40032002AF9D0094A526822F0030246
:100B7000074B5A601A46526842F002025A6000BFA0
:100B8000034A526802F00802002AF9D070470000B8
:100B90000010024000700040FFFFC3B7000034089F
:100BA00010B5FFF773FF10BD2DE9F04704460D4661
:100BB0000027B846B94600261D49601A8C421CD051
:100BC00006DC1C48204470B1B0F5806F1FD10FE0E7
:100BD000B0F5806F16D0B0F56C4F18D10320FFF739
:100BE00079FE074614E00220FFF774FE07460FE087
:100BF0000220FFF76FFE07460AE00220FFF76AFEB9
:100C0000074605E00220FFF765FE074600E000BF4B
:100C100000BF07EB5500B0FBF5F64FF6F07006EAA3
:100C2000000806F00F0948EA0900A060BDE8F08757
:100C3000004C004000BCFFBF10B5044640F202600B
:100C4000FFF7F4FE4FF4C060FFF7F0FE40F20E60D5
:100C5000FFF7ECFE4FF40073032218211D48FFF745
:100C600053FD4FF48063032204211A48FFF74CFD23
:100C7000194800F033F821461748FFF795FF002187
:100C8000154800F06AF90021134800F056F90021D8
:100C9000114800F042F900210F4800F000F900214E
:100CA0000D4800F0F4F804210B4800F03EF908214B
:100CB000094800F04AF94FF44171074800F0F7F88D
:100CC00040F20631044800F0F2F8034800F0DAF888
:100CD00010BD0000000801400038014010B5044676
:100CE0002049601A8C4228D006DC1F48204490B16D
:100CF000B0F5806F33D117E0B0F5806F26D0B0F536
:100D00006C4F2CD140F20E30FFF7B0FE40F20E30A7
:100D1000FFF79CFE24E040F21140FFF7A7FE40F2EF
:100D20001140FFF793FE1BE040F21240FFF79EFEDA
:100D300040F21240FFF78AFE12E040F21340FFF744
:100D400095FE40F21340FFF781FE09E040F21440A7
:100D5000FFF78CFE40F21440FFF778FE00E000BF82
:100D600000BF10BD004C004000BCFFBF00B587B005
:100D70004FF4A060FFF75AFE03213748FFF75FFBEF
:100D80006846FFF7B3FC01208DF81A00002002909E
:100D900001208DF819000020039004902F48009046
:100DA00000208DF8180001904FF4405005906A46DD
:100DB00003212948FFF77BFB04212748FFF73FFB6E
:100DC0006846FFF793FC00208DF81A002448029033
:100DD00001208DF81900002003904FF480600490EA
:100DE0001E48009000208DF8180003904FF44050EA
:100DF00005906A4604211848FFF759FB032116485D
:100E0000FFF704FB03211448FFF74AFC04211248B2
:100E1000FFF7FCFA04211048FFF742FC40210F487D
:100E2000001F00F01FF8022204210B48FFF7D6FB39
:100E300004210948FFF7D1FA80210848001F00F07B
:100E400019F8022203210448FFF7C8FB03210248D6
:100E5000FFF7AAFA07B000BD0000024004380140C5
:100E6000000000200A460021416921F040011143A1
:100E7000416170470A460021416921F08001114318
:100E800041617047C16841F40051C16070470A4632
:100E90000021416921F400711143416170470A4604
:100EA0000021416921F4807111434161704710B5FF
:100EB00000EB9112126801F01F040123A3401A43B2
:100EC00000EB91131A6010BD10B500EB915212683F
:100ED000C1F304440123A3409A4300EB91531A60E9
:100EE00010BD70B5024600230024C1F389101058CC
:100EF00001F01F060125B54000EA050302EB915001
:100F00000068C1F304460125B54000EA050414B1A8
:100F10000BB1012070BD0020FCE7C26822F4C06262
:100F2000C260C2680A43C26070470A460021C168B5
:100F300021F004011143C1607047026922F440525C
:100F4000026102690A43026170470A460021C168D2
:100F500021F008011143C1607047C26822F4805239
:100F6000C260C2680A43C26070474FF04070E1EE51
:100F7000100A7047840F000800000020600C000079
:040F80008C010008D8
:04000005080001519D
:00000001FF
