:020000040800F2
:1000000060080020D50100089D0200089502000844
:10001000990200088F020008110300080000000088
:10002000000000000000000000000000E7010008E0
:100030009302000800000000EB010008ED01000839
:10004000EF010008EF010008EF010008EF010008D0
:10005000EF010008EF010008EF010008EF010008C0
:10006000EF010008EF010008EF010008EF010008B0
:10007000EF010008EF010008EF010008EF010008A0
:10008000EF010008EF010008EF010008EF01000890
:10009000EF010008EF010008EF010008EF01000880
:1000A000EF010008EF010008EF010008EF01000870
:1000B000EF010008EF010008EF010008EF01000860
:1000C000EF010008EF010008EF010008EF01000850
:1000D000EF010008EF010008EF010008EF01000840
:1000E000EF010008EF010008EF010008EF01000830
:1000F000EF010008EF010008EF0100080000000018
:10010000EF01000800000000EF010008EF01000807
:10011000EF010008EF010008EF010008EF010008FF
:10012000EF010008EF010008EF010008EF010008EF
:10013000EF010008EF010008EF010008EF010008DF
:10014000EF010008EF010008EF010008EF010008CF
:1001500000F002F800F02EF80AA090E8000C8244AB
:100160008344AAF10107DA4501D100F023F8AFF288
:10017000090EBAE80F0013F0010F18BFFB1A43F085
:10018000010318477C0700008C07000000230024AF
:1001900000250026103A28BF78C1FBD8520728BF97
:1001A00030C148BF0B6070471FB500F0A4FB1FBDF6
:1001B00010B510BD00F036F81146FFF7F5FF00F05E
:1001C00007F900F054F803B4FFF7F2FF03BC00F0A6
:1001D00057F800000948804709480047FEE7FEE756
:1001E000FEE7FEE7FEE7FEE7FEE7FEE7FEE7FEE7E7
:1001F00004480549054A064B70470000A102000863
:100200005101000860000020600800206004002008
:100210006004002070477047704700000048704736
:10022000000000207546FFF7F9FFAE46050069465D
:10023000534620F00700854618B020B5FFF7D8FFD9
:10024000BDE820404FF000064FF000074FF00008D7
:100250004FF0000B21F00701AC46ACE8C009ACE858
:10026000C009ACE8C009ACE8C0098D46704710B5BC
:100270000446AFF300802046BDE81040FFF7A3BF5F
:1002800001491820ABBEFEE726000200704700BF00
:10029000FEE7704700BFFEE700BFFEE770470000C3
:1002A00008B51848006840F4700016490860164800
:1002B000006840F00100144908600846406840F0BA
:1002C000800048600020009002E00098401C0090F0
:1002D00044F6206100988842F7D300200A4948601C
:1002E000C8620846006809490840074908604FF499
:1002F0001F0088600846006820F48020086000F035
:10030000E1F908BD88ED00E000100240FFFFF6FEB5
:1003100000BFFEE7F0B5044616460025002201F0B6
:100320000F0501F0100747B1042E05D145F0030574
:10033000E76B1F43E76300E0354300201EE0012721
:1003400087401F40C7B122684FEA800C0F2707FA89
:100350000CF7BA43870005FA07F73A43282904D176
:10036000012787401F40676105E0482903D1012725
:1003700087401F4027612260471CB8B20828DED39F
:10038000082022E0012787401F40E7B16268A0F102
:1003900008074FEA870C0F2707FA0CF7BA43A0F1BA
:1003A0000807BF0005FA07F73A43282904D10127B7
:1003B00087401F40676105E0482903D10127874036
:1003C0001F4027616260471CB8B21028DAD3F0BD25
:1003D0004FF4407000F006F84FF4E13000F0BEF941
:1003E00000BFFEE702490143024A11607047000066
:1003F0000000FA050CED00E02DE9F04F8CB0074647
:1004000000200A904AA090E8004CC068CDE905BEE3
:10041000CDF810A007900FF21C1ADAE9000ACDE916
:10042000020A0FF2101ADAE9000ACDE9000A44487C
:100430004068C0F381000B900B9820B1012804D0D4
:1004400002283FD103E03F4A3EE03E4A3CE03C48C0
:10045000406800F4803CBCF5803F12D13848C06A47
:1004600000F08048B8F1000F01D1364C00E0364C66
:100470003348406800F40039B9F5003F02D1334CED
:1004800000E0324C2E484068C0F383412C4840685D
:1004900000F0006008B141F010012948406800F008
:1004A000804008B141F020010F2901D2891C06E0EB
:1004B0000F2903D33E2901D8491C00E03F2104FB4A
:1004C00001F201E01F4A00BF00BF1D484068C0F3B1
:1004D000031504A8465D22FA06F319484068C0F3E4
:1004E000022502A8465D23FA06F0099014484068E8
:1004F000C0F3C2251DF8056023FA06F0089037B155
:10050000012F06D0022F06D0032F0AD106E00A924F
:1005100008E00A9306E009980A9003E008980A9018
:1005200000E000BF00BF0A980CB0BDE8F08F0000EB
:100530000000000000000000010203040607080993
:100540000010024000127A00006CDC0200093D003D
:10055000064A02EB9011096800F01F0301229A403D
:100560001143024B03EB90121160704700100240E0
:10057000064A02EB9011096800F01F0301229A401D
:100580009143024B03EB9012116070470010024040
:10059000064A02EB9011096800F01F0301229A40FD
:1005A0001143024B03EB90121160704700100240A0
:1005B000002000213F4A126842F480323D4B1A600D
:1005C00000BF401C3B4A126802F4003119B94FF6D3
:1005D000FF729042F5D1374A126802F400320AB92C
:1005E00000BFFEE7334AD26942F08052314BDA61F4
:1005F000314A126842F440422F4B1A602D4A526829
:100600002C4B5A601A4652685A601A46526842F495
:1006100080625A601A46526822F440325A601A4682
:10062000526842F440325A601A465268234B1A40CC
:10063000204B5A601A465268214B1A431D4B5A6090
:100640001A46126842F080721A6000BF194A126896
:1006500002F00072002AF9D0174A126842F4803280
:10066000154B1A6000BF144A526802F48032002A07
:10067000F9D0114A126842F400320F4B1A6000BFE1
:100680000D4A526802F40032002AF9D0094A526831
:1006900022F00302074B5A601A46526842F00202E7
:1006A0005A6000BF034A526802F00802002AF9D0DB
:1006B000704700000010024000700040FFFFC3B709
:1006C0000000340810B5FFF773FF10BD2DE9F047A7
:1006D00004460D460027B846B94600261D49601A53
:1006E0008C421CD006DC1C48204470B1B0F5806FF1
:1006F0001FD10FE0B0F5806F16D0B0F56C4F18D158
:100700000320FFF779FE074614E00220FFF774FE8E
:1007100007460FE00220FFF76FFE07460AE00220BF
:10072000FFF76AFE074605E00220FFF765FE074671
:1007300000E000BF00BF07EB5500B0FBF5F64FF639
:10074000F07006EA000806F00F0948EA0900A06008
:10075000BDE8F087004C004000BCFFBF10B5044668
:1007600040F20260FFF7F4FE4FF4C060FFF7F0FEC6
:1007700040F20E60FFF7ECFE4FF4007303221821E5
:100780001848FFF7C7FD4FF4806303220421154882
:10079000FFF7C0FD144800F029F821461248FFF782
:1007A00095FF0021104800F09EF800210E4800F04F
:1007B0008AF800210C4800F076F800210A4800F081
:1007C0006AF80021084800F05EF80421064800F0AD
:1007D00072F80821044800F07EF8034800F04EF853
:1007E00010BD0000000801400038014010B504466B
:1007F0002049601A8C4228D006DC1F48204490B162
:10080000B0F5806F33D117E0B0F5806F26D0B0F52A
:100810006C4F2CD140F20E30FFF7BAFE40F20E3092
:10082000FFF7A6FE24E040F21140FFF7B1FE40F2D0
:100830001140FFF79DFE1BE040F21240FFF7A8FEBB
:1008400040F21240FFF794FE12E040F21340FFF72F
:100850009FFE40F21340FFF78BFE09E040F2144088
:10086000FFF796FE40F21440FFF782FE00E000BF63
:1008700000BF10BD004C004000BCFFBFC16841F488
:100880000051C16070470A460021416921F400719E
:100890001143416170470A460021416921F480718A
:1008A000114341617047C26822F4C062C260C268ED
:1008B0000A43C26070470A460021C16821F0040162
:1008C0001143C1607047026922F44052026102691B
:1008D0000A43026170470A460021C16821F00801FD
:1008E0001143C1607047C26822F48052C260C2687E
:1008F0000A43C26070474FF04070E1EE100A704743
:100900001009000800000020600800008C010008A9
:04000005080001519D
:00000001FF
