:020000040800F2
:10000000080400206501000855030008CB02000821
:1000100051030008C5020008C903000800000000E1
:100020000000000000000000000000007701000850
:10003000C9020008000000007B0100087D010008E3
:100040007F0100087F0100087F0100087F01000890
:100050007F0100087F0100087F0100087F01000880
:100060007F0100087F0100087F0100087F01000870
:100070007F0100087F0100087F0100087F01000860
:100080007F0100087F0100087F0100087F01000850
:100090007F0100087F0100087F0100087F01000840
:1000A0007F0100087F0100087F0100087F01000830
:1000B0007F0100087F0100087F0100087F01000820
:1000C0007F0100087F0100087F0100087F01000810
:1000D0007F0100087F0100087F0100087F01000800
:1000E0007F0100087F0100087F0100087F010008F0
:1000F0007F0100087F0100087F0100080000000068
:100100007F010008000000007F0100087F01000857
:100110007F0100087F0100087F0100087F010008BF
:100120007F0100087F0100087F0100087F010008AF
:100130007F0100087F0100087F0100087F0100089F
:100140007F0100087F0100087F0100087F0100088F
:10015000DFF80CD000F04AF800480047D909000841
:10016000080400200648804706480047FEE7FEE7EF
:10017000FEE7FEE7FEE7FEE7FEE7FEE7FEE7FEE757
:1001800059030008510100082DE9F05F05460020E1
:1001900092469B4688460646814640241BE02846F8
:1001A00041464746224600F042F853465A46C01A96
:1001B000914110D311461846224600F029F82D1A15
:1001C00067EB01084F4622460120002100F020F88D
:1001D00017EB00094E41201EA4F10104DFDC484664
:1001E00031462A464346BDE8F09F0000064C074DC5
:1001F00006E0E06840F0010394E8070098471034F7
:10020000AC42F6D3FFF7A8FF300F0008500F0008EC
:10021000202A04DB203A00FA02F1002070479140C6
:10022000C2F1200320FA03F3194390407047202ABB
:1002300004DB203A21FA02F00021704721FA02F390
:10024000D040C2F120029140084319467047000097
:1002500010B5094804680948844202D0084884421D
:1002600001D1204610BD07A000F0B0F803490248B4
:1002700000F02CFA0148F5E700E003080040000810
:10028000001002084150505F4144445220646F65A1
:10029000736E27742065786973742C7468652064A4
:1002A000656661756C74206164647265737320693E
:1002B00073204150505F415F414444524553530DB8
:1002C0000A00000000BFFEE7704700BFFEE7000025
:1002D00070B5FFF7BDFF0446214610A000F076F888
:1002E000206813490840B0F1005F15D111A000F05B
:1002F0006DF8154800F0CAFD656814480068A0F163
:10030000006631464FF0006000F070FB206880F31B
:10031000088800BFA84700BF012070BD6A756D70D6
:100320005F61646472203D20307825780D0A0000FA
:100330000000FE2F4E6F77204A756D7020546F209D
:100340004150500D0A0000000038014000E0030851
:1003500000BFFEE77047000008B51848006840F489
:100360007000164908601648006840F00100144902
:1003700008600846406840F0800048600020009017
:1003800002E00098401C009044F6206100988842EA
:10039000F7D300200A494860C86208460068094946
:1003A0000840074908604FF41F008860084600684D
:1003B00020F48020086000F089FC08BD88ED00E092
:1003C00000100240FFFFF6FE00BFFEE70FB4054B32
:1003D00010B503A9044A029800F018F810BC5DF8A3
:1003E00014FB0000F90800080000002002E008C823
:1003F000121F08C1002AFAD170477047002001E09F
:1004000001C1121F002AFBD1704700002DE9FF4FE8
:100410008DB09B460F460446002606E025280BD0EB
:100420005A460F999047641C761C20780028F5D115
:1004300011B03046BDE8F08F0025A846012298494A
:1004400000E0054314F8013F203B02FA03F00842A4
:10045000F7D120782E2817D114F8010F45F00405A4
:100460002A280ED06FF02F022078A0F13001092940
:100470000AD808EB880102EB410100EB0108641C7B
:10048000F2E757F8048B641C20786C280DD004DC4C
:100490004C2812D06A2811D104E074280DD07A2893
:1004A0000CD10AE045F4001507E0617845F48015A9
:1004B000814202D1641C05F58015641C2278692AEA
:1004C00045D008DC002AB3D0582A69D0632A10D05E
:1004D000642A08D13BE0702A67D0732A13D0752AAA
:1004E0005CD0782A5CD010465A460F999047761C0B
:1004F000D3E017F8040B8DF8000000208DF8010000
:10050000E946012003E057F8049B4FF0FF306907EC
:100510004FF0000501D40AE06D1C45450DDA854217
:10052000FADB19F805100029F6D106E06D1C8542AA
:10053000FCDB19F805100029F8D12E4404E019F865
:10054000010B5A460F9990476D1EF8D2A5E00A207C
:100550000021CDE90801C5F3025002280DD001CFDA
:10056000C117031E71F100030DDA4FF0000CD0EB40
:100570000C006CEB01012D2308E0FF1D27F007079D
:10058000F7E80201EDE72B0504D52B238DF8283081
:1005900001233BE0EB0739D02023F7E70A2000E0F6
:1005A00010200021CDE9080107E01020002145F0CE
:1005B0000405CDE908014FF00808C5F302500228F0
:1005C0000FD001CF00214FF0000A2B071FD5702A52
:1005D0000DD0DDE908C38CF0100C5CEA030C0CD0E4
:1005E00015E0FF1D27F00707F7E80201EBE74022BF
:1005F0008DF828204FF0010A0BE050EA010306D0E5
:1006000030238DF828308DF8292002239A46582A65
:1006100004D024A20DF120090B9209E026A2F9E7EB
:10062000DDE90823FFF7B0FD0B9B9B5C09F8013D5A
:1006300050EA0102F4D1ADEB0900203008906807C0
:1006400001D44FF001080899884502DDA8EB0100AC
:1006500000E000208046002506E00AA85A46405DDA
:100660000F9990476D1C761C5545F6DB04E0302051
:100670005A460F999047761CB8F10001A8F101087D
:10068000F5DC05E019F8010B5A460F999047761CE6
:100690000899481E08900029F4DC641CC5E6000097
:1006A0000928010030313233343536373839616248
:1006B000636465660000000030313233343536370C
:1006C00038394142434445460000000070B50446B5
:1006D0000D4600F08FF82946204600F0ADF806469A
:1006E00040F2053000F060F84FF4417000F05CF823
:1006F00040F2023000F058F800F066F8304670BD65
:1007000000B50346012200BF00F00CF802465B1E54
:10071000012A01D1002BF7D1012A00D10422104671
:1007200000BD000000200A49C96801F0010109B1BB
:1007300001200CE00649C96801F0100109B103204D
:1007400005E00349C96801F0040101B102207047C6
:100750000020024000B50346012200BF00F00CF863
:1007600002465B1E012A01D1002BF7D1012A00D1DC
:100770000422104600BD000000200A49C96C01F0A7
:10078000010109B101200CE00649C96C01F010011A
:1007900009B1032005E00349C96C01F0040101B16E
:1007A0000220704700200240064A02EB90110968BF
:1007B00000F01F0301229A401143024B03EB9012F9
:1007C00011607047002002400848006940F0800036
:1007D0000649086106480088B0F5007F04D908463C
:1007E000006D40F080000865704700000020024066
:1007F000E0F7FF1F0C48006900F0800020B10B48B3
:10080000094948600A4848600A480088B0F5007FF6
:1008100009D90548006D00F0800020B10348024965
:10082000486403484864704700200240230167453C
:10083000AB89EFCDE0F7FF1F70B504460D460026EB
:100840002A480088B0F5007F35D92948844219D25A
:100850004FF47020FFF754FF0646002E43D1254881
:10086000006940F001002349086125604FF47020C1
:10087000FFF746FF06461F48006920F001001D49AA
:10088000086130E04FF47020FFF764FF064656BB66
:100890001848006D40F001001649086525604FF4C6
:1008A0007020FFF757FF06461248006D20F0010048
:1008B0001049086517E04FF47020FFF721FF064646
:1008C0008EB90C48006940F001000A4908612560B2
:1008D0004FF47020FFF714FF06460648006920F029
:1008E000010004490861304670BD0000E0F7FF1FB9
:1008F000FFFF07080020024070B504460D46214660
:10090000054800F077FA00BF0721034800F0C8FA55
:100910000028F9D0002070BD00380140F0B5044631
:1009200016460025002201F00F0501F0100747B11F
:10093000042E05D145F00305E76B1F43E76300E094
:10094000354300201EE0012787401F40C7B12268C1
:100950004FEA800C0F2707FA0CF7BA43870005FA15
:1009600007F73A43282904D1012787401F406761D0
:1009700005E0482903D1012787401F4027612260F5
:10098000471CB8B20828DED3082022E001278740A0
:100990001F40E7B16268A0F108074FEA870C0F27F4
:1009A00007FA0CF7BA43A0F10807BF0005FA07F7EA
:1009B0003A43282904D1012787401F40676105E099
:1009C000482903D1012787401F4027616260471CE7
:1009D000B8B21028DAD3F0BD10B572B64FF4E120EA
:1009E00000F0C0F9FFF774FC002010BD024A0A4075
:1009F0000243024B1A60704780FFFF1F08ED00E0C2
:100A00002DE9F04F8CB0074600200A904AA090E8EC
:100A1000004CC068CDE905BECDF810A007900FF2DC
:100A20001C1ADAE9000ACDE9020A0FF2101ADAE913
:100A3000000ACDE9000A44484068C0F381000B90E9
:100A40000B9820B1012804D002283FD103E03F4A8F
:100A50003EE03E4A3CE03C48406800F4803CBCF547
:100A6000803F12D13848C06A00F08048B8F1000FCA
:100A700001D1364C00E0364C3348406800F4003970
:100A8000B9F5003F02D1334C00E0324C2E484068AB
:100A9000C0F383412C48406800F0006008B141F089
:100AA00010012948406800F0804008B141F0200161
:100AB0000F2901D2891C06E00F2903D33E2901D852
:100AC000491C00E03F2104FB01F201E01F4A00BF86
:100AD00000BF1D484068C0F3031504A8465D22FA14
:100AE00006F319484068C0F3022502A8465D23FAC0
:100AF00006F0099014484068C0F3C2251DF805604F
:100B000023FA06F0089037B1012F06D0022F06D045
:100B1000032F0AD106E00A9208E00A9306E009983A
:100B20000A9003E008980A9000E000BF00BF0A980E
:100B30000CB0BDE8F08F00000000000000000000D5
:100B400001020304060708090010024000127A009F
:100B5000006CDC0200093D00064A02EB90110968B6
:100B600000F01F0301229A401143024B03EB901245
:100B70001160704700100240064A02EB90110968AC
:100B800000F01F0301229A409143024B03EB9012A5
:100B90001160704700100240064A02EB901109688C
:100BA00000F01F0301229A401143024B03EB901205
:100BB0001160704700100240002000213F4A126877
:100BC00042F480323D4B1A6000BF401C3B4A126821
:100BD00002F4003119B94FF6FF729042F5D1374A4D
:100BE000126802F400320AB900BFFEE7334AD26944
:100BF00042F08052314BDA61314A126842F440428D
:100C00002F4B1A602D4A52682C4B5A601A46526874
:100C10005A601A46526842F480625A601A46526814
:100C200022F440325A601A46526842F440325A6006
:100C30001A465268234B1A40204B5A601A46526893
:100C4000214B1A431D4B5A601A46126842F08072BB
:100C50001A6000BF194A126802F00072002AF9D027
:100C6000174A126842F48032154B1A6000BF144ACA
:100C7000526802F48032002AF9D0114A126842F414
:100C800000320F4B1A6000BF0D4A526802F4003266
:100C9000002AF9D0094A526822F00302074B5A6031
:100CA0001A46526842F002025A6000BF034A526874
:100CB00002F00802002AF9D070470000001002403C
:100CC00000700040FFFFC3B70000340810B5FFF705
:100CD00073FF10BD2DE9F04704460D460027B846C6
:100CE000B94600261D49601A8C421CD006DC1C48FF
:100CF000204470B1B0F5806F1FD10FE0B0F5806F68
:100D000016D0B0F56C4F18D10320FFF779FE0746D7
:100D100014E00220FFF774FE07460FE00220FFF701
:100D20006FFE07460AE00220FFF76AFE074605E06D
:100D30000220FFF765FE074600E000BF00BF07EB9B
:100D40005500B0FBF5F64FF6F07006EA000806F025
:100D50000F0948EA0900A060BDE8F087004C004098
:100D600000BCFFBF10B5044640F20260FFF7F4FE7E
:100D70004FF4C060FFF7F0FE40F20E60FFF7ECFEAC
:100D80004FF40073032218211848FFF7C7FD4FF4F2
:100D90008063032204211548FFF7C0FD144800F0CA
:100DA0002DF821461248FFF795FF0021104800F06A
:100DB000B6F800210E4800F0A2F800210C4800F01F
:100DC0008EF800210A4800F082F80021084800F05F
:100DD00076F80421064800F08AF80821044800F05B
:100DE00096F8034800F057F810BD000000080140D5
:100DF00000380140C1F308024260704710B5044654
:100E00002049601A8C4228D006DC1F48204490B14B
:100E1000B0F5806F33D117E0B0F5806F26D0B0F514
:100E20006C4F2CD140F20E30FFF7B6FE40F20E3080
:100E3000FFF7A2FE24E040F21140FFF7ADFE40F2C2
:100E40001140FFF799FE1BE040F21240FFF7A4FEAD
:100E500040F21240FFF790FE12E040F21340FFF71D
:100E60009BFE40F21340FFF787FE09E040F214407A
:100E7000FFF792FE40F21440FFF77EFE00E000BF55
:100E800000BF10BD004C004000BCFFBFC16821F492
:100E90000051C1607047C16841F40051C1607047A2
:100EA00010B5024602EB9110006801F01F04012307
:100EB000A340184008B1012010BD0020FCE70A46FD
:100EC0000021416921F400711143416170470A46D4
:100ED0000021416921F48071114341617047C2686A
:100EE00022F4C062C260C2680A43C26070470A4608
:100EF0000021C16821F004011143C16070470269FB
:100F000022F44052026102690A43026170470A46B4
:100F10000021C16821F008011143C1607047C26817
:100F200022F48052C260C2680A43C2607047000067
:100F3000500F00080000002004000000EC0300082F
:100F4000540F00080400002004040000FC03000803
:040F5000000000009D
:04000005080001519D
:00000001FF
