:020000040800F2
:100000001085002065010008790500081D0500081D
:1000100075050008BF030008010700080000000084
:100020000000000000000000000000007701000850
:10003000C3030008000000007B0100087D010008E8
:100040007F0100087F0100087F0100087F01000890
:100050007F0100087F0100087F0100087F01000880
:100060007F0100087F0100087F0100087F01000870
:100070007F0100087F0100087F0100087F01000860
:100080007F0100087F0100087F0100087F01000850
:100090007F0100087F0100087F0100087F01000840
:1000A0007F0100087F0100087F0100087F01000830
:1000B0007F0100087F0100087F0100087F01000820
:1000C0007F0100087F0100087F0100087F01000810
:1000D0007F0100087F0100087F0100087F01000800
:1000E0007F0100087F0100087F0100087F010008F0
:1000F0007F0100087F0100087F0100080000000068
:100100007F010008000000007F0100087F01000857
:100110007F0100087F0100087F0100087F010008BF
:100120007F0100087F0100087F0100087F010008AF
:100130007F0100087F0100087F0100087F0100089F
:100140007F0100087F0100087F0100087F0100088F
:10015000DFF80CD000F0A0F800480047611200085A
:10016000108500200648804706480047FEE7FEE766
:10017000FEE7FEE7FEE7FEE7FEE7FEE7FEE7FEE757
:10018000910600085101000840EA01039B0703D0D3
:1001900009E008C9121F08C0042AFAD203E011F8C6
:1001A000013B00F8013B521EF9D2704770B506467C
:1001B00000F0CAFB046805460A220021304600F020
:1001C00033F82C6070BD2DE9F05F054600209246A3
:1001D0009B4688460646814640241BE02846414609
:1001E0004746224600F079F853465A46C01A9141D4
:1001F00010D311461846224600F060F82D1A67EB1E
:1002000001084F4622460120002100F057F817EB65
:1002100000094E41201EA4F10104DFDC48463146AE
:100220002A464346BDE8F09F2DE9F04791460F4628
:1002300080460446002614F8015B2DB100F05EF8FC
:100240000068405DC007F6D12B2D02D02D2D18D0AF
:10025000641E4A463946204600F054F827B13968F2
:10026000A14201D1C7F8008071054FF002040BD5FF
:100270004042002803DD00F067FB0460A007BDE8F2
:10028000F08746F48066E4E70028F8DA00F05CFBCB
:1002900004606FF00040F2E7064C074D06E0E068AE
:1002A00040F0010394E8070098471034AC42F6D3BD
:1002B000FFF752FF041A0008241A0008202A04DB62
:1002C000203A00FA02F1002070479140C2F1200369
:1002D00020FA03F3194390407047202A04DB203AA8
:1002E00021FA02F00021704721FA02F3D040C2F156
:1002F00020029140084319467047000000487047AB
:10030000B81900082DE9F05F8246007800271546ED
:100310008B460AF10104B946302801D09DB113E0A3
:1003200014F8010B0127782803D0582801D045B1D3
:100330000AE00DB1102D07D10027102514F8010B8C
:1003400002E0082500E00A250026B0460EE005FB85
:10035000080005FB06F1012701EB10461FFA80F8A3
:10036000B6F5803F00D3B94614F8010B294600F0DA
:1003700018F80028EBDABBF1000F05D00FB1641EAE
:1003800000E05446CBF80040B9F1000F06D000F071
:10039000DBFA02210160C81EBDE8F09F48EA064072
:1003A000FAE73A2800D2303820F02002412A01D35F
:1003B000A2F13700884201D34FF0FF30704700BFF1
:1003C000FEE7704710B5002413A000F0ADFA00F06E
:1003D00099F90446002C08DD1F49204800F0A4FAD2
:1003E00021461FA000F0A0FA14E0601C18B927A055
:1003F00000F09AFA0EE0A01C18B933A000F094FAAD
:1004000008E0E01C18B937A000F08EFA02E03BA02B
:1004100000F08AFA204610BD0A0D20576169746900
:100420006E6720666F72207468652066696C65204F
:10043000746F2062652073656E74202E2E2E202826
:1004400070726573732027612720746F2061626F5B
:100450007274290A0D00000010000020BC19000869
:100460000A0D2053697A653A203078257820427940
:100470007465730D0A2D2D2D2D2D2D2D2D2D2D2D2A
:100480002D2D2D2D2D2D2D2D200D0A000A0D5468FA
:100490006520696D6167652073697A6520697320DD
:1004A000686967686572207468616E207468652089
:1004B000616C6C6F776564207370616365206D6536
:1004C0006D6F7279210A0D000A0D566572696669B1
:1004D000636174696F6E206661696C6564210A0DE1
:1004E000000000000D0A41626F7274656420627939
:1004F00020757365722E0A0D000000000A0D46611A
:10050000696C656420746F20726563656976652027
:100510007468652066696C65210A0D0000BFFEE7FE
:1005200010B5024800F084FB10BD000000F803087D
:1005300001B504226946024800F07DFB08BD0000B9
:1005400000F8030810B50948006809490840B0F1EF
:10055000005F08D1054844680146086880F30888B0
:1005600000BFA04700BF012010BD000000800008B0
:100570000000FE2F00BFFEE7704770B505460C4631
:1005800006E0284600F072F8012801D1002070BD75
:10059000201EA4F10104F4D1401EF8E72DE9F84330
:1005A00007460C4690460020206041466846FFF70B
:1005B000E4FF18B14FF0FF30BDE8F8839DF800006C
:1005C000182813D006DC012809D0022809D00428F5
:1005D00020D109E041281AD061281BD118E08026DB
:1005E0001BE04FF4806618E00020E5E741466846CE
:1005F000FFF7C3FF40B99DF80000182804D14FF061
:10060000FF3020600020D7E74FF0FF30D4E700BF75
:100610000120D1E74FF0FF30CEE700BF9DF800008A
:100620003870012509E078194146FFF7A6FF10B19F
:100630004FF0FF30C0E7681C85B2701D8542F2DBC9
:1006400026600020B8E7000010B5044621460648A1
:1006500001F0D7F800BF0721034801F024F9002872
:10066000F9D0002010BD00000038014010B504464C
:100670000521064801F017F928B1044801F0BCF83B
:100680002070012010BD0020FCE700000038014070
:1006900008B51848006840F470001649086016480C
:1006A000006840F00100144908600846406840F0C6
:1006B000800048600020009002E00098401C0090FC
:1006C00044F6206100988842F7D300200A49486028
:1006D000C8620846006809490840074908604FF4A5
:1006E0001F0088600846006820F48020086000F041
:1006F000EFFF08BD88ED00E000100240FFFFF6FEAE
:1007000000BFFEE72DE9F04FADF22C4D0027B846B3
:10071000824800904FF0000A002007908346059021
:1007200000BF4FF000090020069000BF4FF4801278
:1007300008A909A8FFF732FF10B101287AD1C1E05A
:100740004FF0000B0898B0F1FF3F01D0E8B907E087
:100750000620FFF779FF00200DF22C4DBDE8F08F49
:10076000BAF1000F05D11520FFF76EFF4FF0010A17
:100770000AE0BAF1010F07D10620FFF765FF432019
:10078000FFF762FF012006909AE09DF8250009F02E
:10079000FF01884203D01520FFF756FF8FE0B9F123
:1007A000000F56D19DF8270000284BD000250DF1F1
:1007B000270405E014F8012B28466D1C58490A54FB
:1007C000207808B1FF2DF5DD002228466D1C544924
:1007D0000A540025641C05E014F8012B28466D1C02
:1007E00001A90A542078202801D0102DF4DB002222
:1007F00028466D1C01A90A5401A8FFF7D7FC07463B
:100800004848874208DD1820FFF71EFF1820FFF731
:100810001BFF4FF0FF309FE7384600F0B3FD064660
:100820004EB91820FFF710FF1820FFF70DFF4FF00B
:10083000FF3091E74FE00620FFF706FF4320FFF768
:1008400003FF38E00620FFF7FFFE01200690079027
:1008500036E0B84523DA06EB08000DF12701089AC7
:10086000FFF792FC08988044B84514DB3A463146BD
:10087000009800F0E0F958B1304600F06BFC182009
:10088000FFF7E2FE1820FFF7DFFE6FF0010063E7DD
:10089000304600F05FFC0620FFF7D6FE0BE0304646
:1008A00000F058FC1820FFF7CFFE1820FFF7CCFE11
:1008B0006FF0010050E709F101090120059000BF28
:1008C00000BF1CE01820FFF7BFFE1820FFF7BCFE9A
:1008D0006FF0020040E70598002801DD0BF1010BE5
:1008E000BBF1050F07DD1820FFF7AEFE1820FFF75C
:1008F000ABFE002030E74320FFF7A6FE00BF00BF9D
:10090000069800283FF412AF00BF00BF07980028E8
:100910003FF407AF00BF00BF38461DE70080000866
:1009200010000020017803000FB4054B10B503A997
:10093000044A029800F01CF810BC5DF814FB00009B
:100940003111000800000020004870470C00002012
:1009500002E008C8121F08C1002AFAD17047704788
:10096000002001E001C1121F002AFBD170470000E6
:100970002DE9FF4F8DB09B460F460446002606E04A
:1009800025280BD05A460F999047641C761C207876
:100990000028F5D111B03046BDE8F08F0025A846FB
:1009A0000122984900E0054314F8013F203B02FA78
:1009B00003F00842F7D120782E2817D114F8010F40
:1009C00045F004052A280ED06FF02F022078A0F100
:1009D000300109290AD808EB880102EB410100EB3C
:1009E0000108641CF2E757F8048B641C20786C281B
:1009F0000DD004DC4C2812D06A2811D104E07428F0
:100A00000DD07A280CD10AE045F4001507E0617892
:100A100045F48015814202D1641C05F58015641CE3
:100A20002278692A45D008DC002AB3D0582A69D038
:100A3000632A10D0642A08D13BE0702A67D0732A59
:100A400013D0752A5CD0782A5CD010465A460F998C
:100A50009047761CD3E017F8040B8DF800000020B7
:100A60008DF80100E946012003E057F8049B4FF0A0
:100A7000FF3069074FF0000501D40AE06D1C4545C1
:100A80000DDA8542FADB19F805100029F6D106E0E7
:100A90006D1C8542FCDB19F805100029F8D12E44A5
:100AA00004E019F8010B5A460F9990476D1EF8D2D1
:100AB000A5E00A200021CDE90801C5F30250022873
:100AC0000DD001CFC117031E71F100030DDA4FF0F5
:100AD000000CD0EB0C006CEB01012D2308E0FF1D96
:100AE00027F00707F7E80201EDE72B0504D52B23D4
:100AF0008DF8283001233BE0EB0739D02023F7E7BE
:100B00000A2000E010200021CDE9080107E01020B4
:100B1000002145F00405CDE908014FF00808C5F3B0
:100B2000025002280FD001CF00214FF0000A2B07FE
:100B30001FD5702A0DD0DDE908C38CF0100C5CEADB
:100B4000030C0CD015E0FF1D27F00707F7E80201A2
:100B5000EBE740228DF828204FF0010A0BE050EA25
:100B6000010306D030238DF828308DF82920022388
:100B70009A46582A04D024A20DF120090B9209E0CC
:100B800026A2F9E7DDE90823FFF71DFB0B9B9B5C21
:100B900009F8013D50EA0102F4D1ADEB0900203023
:100BA0000890680701D44FF001080899884502DDD4
:100BB000A8EB010000E000208046002506E00AA81E
:100BC0005A46405D0F9990476D1C761C5545F6DBE3
:100BD00004E030205A460F999047761CB8F1000186
:100BE000A8F10108F5DC05E019F8010B5A460F9948
:100BF0009047761C0899481E08900029F4DC641C74
:100C0000C5E600000928010030313233343536376B
:100C10003839616263646566000000003031323348
:100C200034353637383941424344454600000000E8
:100C30000146086870472DE9F84F06460C461546F0
:100C40004FF0000AD146CB460020009000F0EEF9AC
:100C500006F00109A6EB0906F70A03E0F80200F026
:100C60006FF97F1C7019B7EBD02FF7D9B9F1000FCE
:100C70001CD02078000200903046009900F0EAF87D
:100C8000804640F2053000F0D5F84FF4417000F096
:100C9000D1F840F2023000F0CDF8B8F1000F01D0E9
:100CA000B2466FE0B61CA5EB0905641C002728E0DE
:100CB00014F82710B800401C205C41EA0021B8005D
:100CC000801C205C41EA0041B800C01C205C41EA65
:100CD000006B5946304600F0CBF98046361D40F295
:100CE000053000F0A7F84FF4417000F0A3F840F28F
:100CF000023000F09FF8B8F1000F01D0B24641E099
:100D00007F1CB7EB950FD3D305F00300C0B305F0FC
:100D10000300012804D0022806D0032816D10AE0D7
:100D2000681E14F800B014E0A81E215C681E205C48
:100D300041EA002B0DE0E81E215CA81E205C41EA80
:100D40000021681E205C41EA004B02E04FF0000BDE
:100D500000BF00BF5946304600F08AF9804640F295
:100D6000053000F067F84FF4417000F063F840F28E
:100D7000023000F05FF8B8F1000F02D0B24601E097
:100D8000FFE700BF00F0C6F85046BDE8F88F00B599
:100D90000346012200BF00F00BF802465B1E012A49
:100DA00001D1002BF7D1012A00D10422104600BD49
:100DB00000200A49C96801F0010109B101200CE0D5
:100DC0000649C96801F0100109B1032005E0034993
:100DD000C96801F0040101B10220704700200240FF
:100DE00000B50346012200BF00F00CF802465B1E6E
:100DF000012A01D1002BF7D1012A00D1042210468B
:100E000000BD000000200A49C96C01F0010109B1D0
:100E100001200CE00649C96C01F0100109B1032062
:100E200005E00349C96C01F0040101B102207047DB
:100E300000200240064A02EB9011096800F01F03EF
:100E400001229A401143024B03EB9012116070474C
:100E50000020024070B504460D4600262A4800884E
:100E6000B0F5007F35D92948844219D24FF470205B
:100E7000FFF78DFF0646002E43D12548006940F05C
:100E800001002349086125804FF47020FFF77FFFA0
:100E900006461F48006920F001001D49086130E046
:100EA0004FF47020FFF79CFF064656BB1848006DB4
:100EB00040F001001649086525804FF47020FFF7C7
:100EC0008FFF06461248006D20F0010010490865AA
:100ED00017E04FF47020FFF75AFF06468EB90C4812
:100EE000006940F001000A49086125804FF4702034
:100EF000FFF74DFF06460648006920F0010004494F
:100F00000861304670BD0000E0F7FF1FFFFF0708D3
:100F1000002002400848006940F08000064908614E
:100F200006480088B0F5007F04D90846006D40F0FF
:100F3000800008657047000000200240E0F7FF1FB6
:100F400030B5054636480088B0F5007F48D93548A9
:100F500085421ED24FF47020FFF719FF0446002C83
:100F60005BD13148006940F002002F490861084612
:100F70004561006940F0400008614FF47020FFF7C0
:100F800006FF04462848006920F00200264908614F
:100F900043E04FF47020FFF723FF0446002C3CD1C0
:100FA0002148006D40F002001F490865084645656C
:100FB000C06900F0020008B1084645611A48006D9A
:100FC00040F04000184908654FF47020FFF708FF13
:100FD00004461548006D20F00200134908651CE026
:100FE0004FF47020FFF7D3FE0446B4B90E480069F1
:100FF00040F002000C49086108464561006940F074
:10100000400008614FF47020FFF7C1FE0446064817
:10101000006920F0020004490861204630BD00004C
:10102000E0F7FF1FFFFF0708002002400C4800699F
:1010300000F0800020B10B48094948600A48486028
:101040000A480088B0F5007F09D90548006D00F016
:10105000800020B10348024948640348486470474F
:101060000020024023016745AB89EFCDE0F7FF1F69
:1010700070B504460D4600262A480088B0F5007F6A
:1010800035D92948844219D24FF47020FFF77FFEEA
:101090000646002E43D12548006940F0010023494F
:1010A000086125604FF47020FFF771FE06461F4867
:1010B000006920F001001D49086130E04FF4702004
:1010C000FFF78EFE064656BB1848006D40F0010043
:1010D0001649086525604FF47020FFF781FE06462B
:1010E0001248006D20F001001049086517E04FF428
:1010F0007020FFF74CFE06468EB90C48006940F0A0
:1011000001000A49086125604FF47020FFF73FFE97
:1011100006460648006920F001000449086130468F
:1011200070BD0000E0F7FF1FFFFF0708002002402E
:1011300070B504460D462146054800F062FB00BF2D
:101140000721034800F0AFFB0028F9D0002070BD54
:101150000038014010B5002821D0114B0022001F9B
:10116000196803E0814203D80A4649680029F9D189
:1011700052B11368841A9C4204D10068184410606C
:10118000104602E0506000E0186039B102680B1AA6
:10119000934203D10B681A4402604968416010BD54
:1011A00004000020F0B5044616460025002201F098
:1011B0000F0501F0100747B1042E05D145F00305D6
:1011C000E76B1F43E76300E0354300201EE0012783
:1011D00087401F40C7B122684FEA800C0F2707FAEB
:1011E0000CF7BA43870005FA07F73A43282904D1D8
:1011F000012787401F40676105E0482903D1012787
:1012000087401F4027612260471CB8B20828DED300
:10121000082022E0012787401F40E7B16268A0F163
:1012200008074FEA870C0F2707FA0CF7BA43A0F11B
:101230000807BF0005FA07F73A43282904D1012718
:1012400087401F40676105E0482903D10127874097
:101250001F4027616260471CB8B21028DAD3F0BD86
:101260004FF4407000F0C4F872B64FF4E13000F073
:101270007BFA4EF6EE60FFF75BF91BA0FFF754FB1D
:1012800031E0FFF74DF9A0F5B4405A3850B1A0F560
:101290000340833800281DD0A0F58850113800285D
:1012A0001CD10EE017A0FFF73FFBFFF74BF900281A
:1012B00006DD1AA0FFF738FB4EF6EE60FFF738F9AF
:1012C00010E0FFF77FF8002803DD45F65A20FFF70E
:1012D0002FF907E020A0FFF727FB03E025A0FFF789
:1012E00023FB00BF00BFCCE74E6F772063686563C8
:1012F0006B207468652069617020666C61670D0AF7
:1013000000000000537461727420746F204A756D80
:101310007020746F204150500D0A00004A756D70A6
:1013200020746F20415050204661696C65642C50D8
:101330006C6561736520436F6E74696E75652074AA
:101340006F20446F776E6C6F61642042494E204677
:10135000696C65730D0A0000537461727420746FB8
:101360002055706C6F61642042696E2046696C651F
:101370000D0A00004E6F2041505020446174610AF4
:1013800000000000F0B50B30154D20F007010024DF
:10139000144A0FE003688B420BD38B4205D95E1AC7
:1013A00043184768C3E9006700E04368136002C060
:1013B00004E0021D10680028ECD12046002802D16C
:1013C000286808B10020F0BD064A07481060074AA7
:1013D000121A22F00702C0E9002401202860D7E792
:1013E00008000020040000201401002010810020CB
:1013F00002490143024A1160704700000000FA05EB
:101400000CED00E02DE9F04F8CB0074600200A906B
:101410004AA090E8004CC068CDE905BECDF810A008
:1014200007900FF21C1ADAE9000ACDE9020A0FF25E
:10143000101ADAE9000ACDE9000A44484068C0F30E
:1014400081000B900B9820B1012804D002283FD1D5
:1014500003E03F4A3EE03E4A3CE03C48406800F43E
:10146000803CBCF5803F12D13848C06A00F080480B
:10147000B8F1000F01D1364C00E0364C33484068DB
:1014800000F40039B9F5003F02D1334C00E0324C92
:101490002E484068C0F383412C48406800F000604B
:1014A00008B141F010012948406800F0804008B1BF
:1014B00041F020010F2901D2891C06E00F2903D336
:1014C0003E2901D8491C00E03F2104FB01F201E064
:1014D0001F4A00BF00BF1D484068C0F3031504A8A1
:1014E000465D22FA06F319484068C0F3022502A8B7
:1014F000465D23FA06F0099014484068C0F3C225FF
:101500001DF8056023FA06F0089037B1012F06D0C8
:10151000022F06D0032F0AD106E00A9208E00A93B0
:1015200006E009980A9003E008980A9000E000BFDE
:1015300000BF0A980CB0BDE8F08F0000000000006A
:101540000000000001020304060708090010024021
:1015500000127A00006CDC0200093D00064A02EB32
:101560009011096800F01F0301229A401143024BB9
:1015700003EB90121160704700100240064A02EB24
:101580009011096800F01F0301229A409143024B19
:1015900003EB90121160704700100240064A02EB04
:1015A0009011096800F01F0301229A401143024B79
:1015B00003EB9012116070470010024000200021E0
:1015C0003F4A126842F480323D4B1A6000BF401C13
:1015D0003B4A126802F4003119B94FF6FF7290428B
:1015E000F5D1374A126802F400320AB900BFFEE7AB
:1015F000334AD26942F08052314BDA61314A126883
:1016000042F440422F4B1A602D4A52682C4B5A60CC
:101610001A4652685A601A46526842F480625A600A
:101620001A46526822F440325A601A46526842F40E
:1016300040325A601A465268234B1A40204B5A6077
:101640001A465268214B1A431D4B5A601A461268BB
:1016500042F080721A6000BF194A126802F00072EC
:10166000002AF9D0174A126842F48032154B1A60EA
:1016700000BF144A526802F48032002AF9D0114A9D
:10168000126842F400320F4B1A6000BF0D4A5268D4
:1016900002F40032002AF9D0094A526822F003020B
:1016A000074B5A601A46526842F002025A6000BF65
:1016B000034A526802F00802002AF9D0704700007D
:1016C0000010024000700040FFFFC3B70000340864
:1016D00010B5FFF773FF10BD2DE9F04704460D4626
:1016E0000027B846B94600261D49601A8C421CD016
:1016F00006DC1C48204470B1B0F5806F1FD10FE0AC
:10170000B0F5806F16D0B0F56C4F18D10320FFF7FD
:1017100079FE074614E00220FFF774FE07460FE04B
:101720000220FFF76FFE07460AE00220FFF76AFE7D
:10173000074605E00220FFF765FE074600E000BF10
:1017400000BF07EB5500B0FBF5F64FF6F07006EA68
:10175000000806F00F0948EA0900A060BDE8F0871C
:10176000004C004000BCFFBF10B5044640F20260D0
:10177000FFF7F4FE4FF4C060FFF7F0FE40F20E609A
:10178000FFF7ECFE4FF40073032218211848FFF70F
:1017900009FD4FF48063032204211548FFF702FD81
:1017A000144800F033F821461248FFF795FF002156
:1017B000104800F0B7F800210E4800F0A3F800210F
:1017C0000C4800F08FF800210A4800F083F800214F
:1017D000084800F077F80421064800F08BF808214B
:1017E000044800F097F8034800F058F810BD0000D6
:1017F000000801400038014001464868C0F3080075
:101800007047C1F3080242607047000010B50446FB
:101810002049601A8C4228D006DC1F48204490B131
:10182000B0F5806F33D117E0B0F5806F26D0B0F5FA
:101830006C4F2CD140F20E30FFF7B0FE40F20E306C
:10184000FFF79CFE24E040F21140FFF7A7FE40F2B4
:101850001140FFF793FE1BE040F21240FFF79EFE9F
:1018600040F21240FFF78AFE12E040F21340FFF709
:1018700095FE40F21340FFF781FE09E040F214406C
:10188000FFF78CFE40F21440FFF778FE00E000BF47
:1018900000BF10BD004C004000BCFFBFC16841F458
:1018A0000051C160704710B5024602EB911000680C
:1018B00001F01F040123A340184008B1012010BD0E
:1018C0000020FCE70A460021416921F40071114320
:1018D000416170470A460021416921F4807111433A
:1018E00041617047C26822F4C062C260C2680A43A4
:1018F000C26070470A460021C16821F0040111430B
:10190000C1607047026922F44052026102690A43D1
:10191000026170470A460021C16821F008011143A5
:10192000C1607047C26822F48052C260C2680A4334
:10193000C26070470040404040404040404041410C
:101940004141414040404040404040404040404094
:10195000404040404005020202020202020202022E
:10196000020202020220202020202020202020022B
:1019700002020202020290909090909010101010BB
:101980001010101010101010101010101010101057
:1019900002020202020288888888888808080808EB
:1019A00008080808080808080808080808080808B7
:1019B0000202020240000000351900080A0D2D2D18
:1019C0002D2D2D2D2D2D2D2D2D2D2D2D2D2D2D2D47
:1019D0002D200A0D2050726F6772616D6D696E6700
:1019E00020436F6D706C6574656420537563636527
:1019F000737366756C6C79210A0D204E616D653AC2
:101A000020257300241A00080000002010000000A8
:101A100050090008341A000810000020008500005A
:101A20006009000800000000000000000000000045
:041A300000000000B2
:04000005080001519D
:00000001FF
