:020000040800F2
:100000000809002065010008410A0008D10900081C
:100010003D0A000839080008C90B0008000000006C
:100020000000000000000000000000007701000850
:100030003D080008000000007B0100087D01000869
:100040007F0100087F0100087F0100087F01000890
:100050007F0100087F0100087F0100087F01000880
:100060007F0100087F0100087F0100087F01000870
:100070007F0100087F0100087F0100087F01000860
:100080007F0100087F0100087F0100087F01000850
:100090007F0100087F0100087F0100087F01000840
:1000A0007F0100087F0100087F0100087F01000830
:1000B0007F0100087F0100087F0100087F01000820
:1000C0007F0100087F0100087F0100087F01000810
:1000D0007F0100087F0100087F0100087F01000800
:1000E0007F0100087F0100087F0100087F010008F0
:1000F0007F0100087F0100087F0100080000000068
:100100007F010008000000007F0100087F01000857
:100110007F0100087F0100087F0100087F010008BF
:100120007F0100087F0100087F0100087F010008AF
:100130007F0100087F0100087F0100087F0100089F
:100140007F0100087F0100087F0100087F0100088F
:10015000DFF80CD000F06EFA00480047AD1C000834
:10016000080900200648804706480047FEE7FEE7EA
:10017000FEE7FEE7FEE7FEE7FEE7FEE7FEE7FEE757
:10018000590B00085101000840EA01039B0703D006
:1001900009E008C9121F08C0042AFAD203E011F8C6
:1001A000013B00F8013B521EF9D2704770B506467C
:1001B00000F00CFE046805460A220021304600F0DB
:1001C00049F82C6070BD30B50B4601460020202256
:1001D000012409E021FA02F59D4205D303FA02F554
:1001E000491B04FA02F52844151EA2F10102F1DCB4
:1001F00030BD2DE9F05F0546002092469B468846BB
:100200000646814640241BE0284641464746224692
:1002100000F031FA53465A46C01A914110D31146A4
:100220001846224600F018FA2D1A67EB01084F46CF
:1002300022460120002100F00FFA17EB00094E4181
:10024000201EA4F10104DFDC484631462A4643461D
:10025000BDE8F09F2DE9F04791460F4680460446E1
:10026000002614F8015B2DB100F028FA0068405D0B
:10027000C007F6D12B2D02D02D2D18D0641E4A4672
:100280003946204600F01EFA27B13968A14201D153
:10029000C7F8008071054FF002040BD540420028DA
:1002A00003DD00F093FD0460A007BDE8F08746F48D
:1002B0008066E4E70028F8DA00F088FD04606FF05B
:1002C0000040F2E72DE9FE4F804681EA0300C00FAF
:1002D0000C46009021F0004123F00045B8EB0200ED
:1002E000A94105D24046214690461C460B4602468F
:1002F00023F00040104347D0270DC7F30A00C3F393
:100300000A510290401A019040286BDAC3F313009F
:1003100040F4801B0098924620B10023D2EB030AE0
:1003200063EB0B0B01985946C0F14002504600F0B8
:1003300093F906460D4650465946019A00F0ABF92E
:1003400010EB08006141002487EA115284EAE77348
:100350001A4340D0009A62B3019A012A4FEA075229
:1003600015DC001B61EB02014FF0004202EA07526C
:10037000CDE90042001C41F5801132462B4600F0C9
:10038000FFF903B0BDE8F08F40462146F9E7001BB6
:1003900061EB0201001C41F5801300185B4120183D
:1003A000A2F5001747EB030140EAD570B6196D417D
:1003B00011E06D084FEA360645EAC0754FEA07526C
:1003C000001B61EB0201001C41F5801149084FEA56
:1003D00030000019514132462B4603B0BDE8F04FC2
:1003E00000F0BFB90098012240000023D0EB0202C8
:1003F00063EBE073009821464FEAE074B8EB00002D
:1004000061EB0401E9E783F000435BE781F0004121
:1004100058E72DE9FE4F81EA030404F0004421F07F
:10042000004100944FF0000B23F0004350EA010418
:100430005ED052EA03045BD0C3F30A54C1F30A55F9
:100440002C44A4F2F3340194A0FB0254C1F3130131
:1004500041F48011C3F3130343F4801301FB0244FE
:1004600000FB034E840A970A44EA815447EA835703
:10047000A4FB076802958D0A05FB07854FEA932CBC
:1004800004FB0C542705029D4FEA065847EA16372D
:10049000B5EB08056EEB070C870E920E47EA811745
:1004A00042EA8312A7FB0201B6EB0B0164EB0004E6
:1004B0002B0D43EA0C335E1844EB1C50DA465146D0
:1004C000E7FB0201C5F313044FEA0B3343EA14536D
:1004D0004FEA0432019C43EA0603A4F10C0402949F
:1004E000009CCDE900B400F04BF903B0BDE8F08FFB
:1004F00000200146F9E72DE9F04D81EA030404F0FC
:10050000004B21F0004514464FF0000A23F0004153
:1005100050EA050220D054EA01021DD0C5F30A5763
:100520000246C5F31303C1F31300C1F30A5640F4A6
:10053000801543F48013A7EB0608101BD64608F27B
:10054000FD3873EB050002D308F1010801E09218B1
:100550005B41B8F1000F03DA00200146BDE8F08DE1
:1005600000204FF48011064684460EE0171B73EB03
:10057000050705D3121B63EB050306434CEA010C88
:1005800049084FEA300092185B4150EA0107EDD16B
:1005900052EA030012D082EA040083EA050108430C
:1005A00005D0101BAB4106D20122002306E0002239
:1005B0004FF0004302E06FF0010253101AEB060007
:1005C0004CEB085110EB0A0041EB0B01BDE8F04D7C
:1005D00000F0C7B8C1F30A52C1F3130140F2FF3370
:1005E00041F480119A4202DA00200146704740F23D
:1005F00033439A42A2F2334202DC524200F03BB84B
:1006000000F02AB830B5041E71F1000404DB4FF08D
:100610000044404264EB0101141E73F1000405DB49
:100620001C464FF00043524263EB0403994208BF5B
:10063000904230BD064C074D06E0E06840F00103F3
:1006400094E8070098471034AC42F6D3FFF784FDD6
:100650000C2300082C230008202A04DB203A00FA8F
:1006600002F1002070479140C2F1200320FA03F309
:10067000194390407047202A04DB203A21FA02F007
:100680000021704721FA02F3D040C2F120029140CC
:10069000084319467047202A06DBCB17203A41FA57
:1006A00002F043EAE07306E041FA02F3D040C2F1FF
:1006B00020029140084319467047000000487047E7
:1006C000B42200082DE9F05F824600780027154625
:1006D0008B460AF10104B946302801D09DB113E0E0
:1006E00014F8010B0127782803D0582801D045B110
:1006F0000AE00DB1102D07D10027102514F8010BC9
:1007000002E0082500E00A250026B0460EE005FBC1
:10071000080005FB06F1012701EB10461FFA80F8DF
:10072000B6F5803F00D3B94614F8010B294600F016
:1007300075F80028EBDABBF1000F05D00FB1641E8D
:1007400000E05446CBF80040B9F1000F06D000F0AD
:100750003DFB02210160C81EBDE8F09F48EA06404B
:10076000FAE710B5141E73F1000408DA401C41F1D9
:10077000000192185B411A4301D120F0010010BD25
:100780002DE9F04D92469B4611B1B1FA81F202E09B
:10079000B0FA80F220329046FFF75EFF04460F4623
:1007A00040EA0A0041EA0B0153465A46084313D077
:1007B000114653EA010019D0C8F140025046FFF734
:1007C0005AFF05460E46504659464246FFF744FF3B
:1007D000084305D0012004E020463946BDE8F08DED
:1007E0000020054346EAE0762C4337430A98630528
:1007F000E40AA0EB08000022FD0A44EA47540A304C
:1008000002D500200146E9E7010510196941DDE93B
:10081000084500196941BDE8F04DA2E73A2800D229
:10082000303820F02002412A01D3A2F1370088425B
:1008300001D34FF0FF30704700BFFEE77047000064
:100840003EB5002000900190029000241BA000F013
:10085000ADFA2A492A4800F0B9F90446002C16DD01
:1008600028A000F0A3FA2D4800F0A0FA2C4800F0D0
:100870009DFA2146684600F0B5F82AA000F096FAE5
:10088000684600F093FA2AA000F090FA14E0601C89
:1008900018B92AA000F08AFA0EE0A01C18B937A0F7
:1008A00000F084FA08E0E01C18B93BA000F07EFAE2
:1008B00002E03FA000F07AFA3EBD00000A0D20578A
:1008C000616974696E6720666F722074686520665E
:1008D000696C6520746F2062652073656E74202ECC
:1008E0002E2E202870726573732027612720746F65
:1008F0002061626F7274290A0D00000000800008F8
:10090000080000202D2D2D2D2D2D2D2D2D2D2D2DA3
:100910002D2D2D2D2D2D2D0A00000000B8220008B0
:10092000080400200A0D2053697A653A200000006F
:100930002042797465730D0A000000000A0A0D5404
:10094000686520696D6167652073697A65206973E0
:1009500020686967686572207468616E20746865D4
:1009600020616C6C6F776564207370616365206DC6
:10097000656D6F7279210A0D000000000A0A0D569C
:100980006572696669636174696F6E206661696C1E
:100990006564210A0D0000000D0A0A41626F72743D
:1009A000656420627920757365722E0A0D0000005F
:1009B0000A0D4661696C656420746F207265636519
:1009C000697665207468652066696C65210A0D008A
:1009D00000BFFEE710B5024800F065FE10BD000044
:1009E00000F80308F0B5144A00250024002320E095
:1009F000B1FBF2F6303606F0FF0C2E466D1C00F807
:100A000006C0B1FBF2F602FB16110A26B2FBF6F2A3
:100A10006E1E865D302E01D1012600E000260CB945
:100A2000012700E000273E400EB1002500E0641CD5
:100A30005B1C0A2BDCD3F0BD00CA9A3B00BFFEE76B
:100A4000704770B505460C4606E0284600F072F87F
:100A5000012801D1002070BD201EA4F10104F4D1B1
:100A6000401EF8E72DE9F84307460C469046002063
:100A7000206041466846FFF7E4FF18B14FF0FF30B1
:100A8000BDE8F8839DF80000182813D006DC012883
:100A900009D0022809D0042820D109E041281AD021
:100AA00061281BD118E080261BE04FF4806618E017
:100AB0000020E5E741466846FFF7C3FF40B99DF8CF
:100AC0000000182804D14FF0FF3020600020D7E745
:100AD0004FF0FF30D4E700BF0120D1E74FF0FF30E7
:100AE000CEE700BF9DF800003870012509E07819B5
:100AF0004146FFF7A6FF10B14FF0FF30C0E7681C7A
:100B000085B2701D8542F2DB26600020B8E7000048
:100B100010B504462146064801F0F1FA00BF07214E
:100B2000034801F03EFB0028F9D0002010BD000072
:100B30000038014010B504460521064801F031FB9C
:100B400028B1044801F0D6FA2070012010BD002021
:100B5000FCE700000038014008B51848006840F480
:100B60007000164908601648006840F001001449FA
:100B700008600846406840F080004860002000900F
:100B800002E00098401C009044F6206100988842E2
:100B9000F7D300200A494860C8620846006809493E
:100BA0000840074908604FF41F0088600846006845
:100BB00020F48020086001F009FA08BD88ED00E00B
:100BC00000100240FFFFF6FE00BFFEE72DE9F04FE8
:100BD000ADF2344D83460E460020069001968146C4
:100BE00009908246079000BF4FF00008002008904F
:100BF0005F4600BF4FF480120AA90BA8FFF732FF2F
:100C000010B1012879D1A1E04FF0000A0A98B0F1A3
:100C1000FF3F01D0E8B907E00620FFF779FF002089
:100C20000DF2344DBDE8F08FB9F1000F05D115205C
:100C3000FFF76EFF4FF001090AE0B9F1010F07D18C
:100C40000620FFF765FF4320FFF762FF01200890B1
:100C50007AE09DF82D0008F0FF01884203D01520AE
:100C6000FFF756FF6FE0B8F1000F4ED19DF82F004F
:100C7000002843D000250DF12F0405E014F8012BC6
:100C800028466D1C47490A54207808B1FF2DF5DD30
:100C9000002228466D1C43490A540025641C05E0C7
:100CA00014F8012B28466D1C02A90A54207820282C
:100CB00001D0102DF4DB002228466D1C02A90A5435
:100CC00002A8FFF773FA069037490698884208DDB4
:100CD0001820FFF71DFF1820FFF71AFF4FF0FF3015
:100CE0009EE74FF45E31304600F08CFD0620FFF7A2
:100CF0000FFF4320FFF70CFF21E030E00620FFF755
:100D000007FF0120089009901EE00DF12F013846E1
:100D10000A9AFFF739FA0A9882B23946019800F028
:100D2000C5FC18B90620FFF7F3FE08E01820FFF70E
:100D3000EFFE1820FFF7ECFE6FF0010070E708F1FE
:100D400001080120079000BF00BF1CE01820FFF73A
:100D5000DFFE1820FFF7DCFE6FF0020060E7079867
:100D6000002801DD0AF1010ABAF1050F07DD18209C
:100D7000FFF7CEFE1820FFF7CBFE002050E7432000
:100D8000FFF7C6FE00BF00BF089800283FF432AF4F
:100D900000BF00BF099800283FF426AF00BF00BF86
:100DA00006983DE708040020017803000FB4054BC6
:100DB00010B503A9044A029800F0DEF810BC5DF8F3
:100DC00014FB0000CD1B0008000000200048704705
:100DD0000400002002E008C8121F08C1002AFAD14E
:100DE00070477047002001E001C1121F002AFBD1AB
:100DF000704700002DE9FF5F82B00021DDE904307B
:100E0000020DDDF840B0034318D044F61050A2F2B2
:100E1000FF3242431514119801281FD0A5EB0B0097
:100E2000401C5FEA000A4FF000064E4FDFF8389191
:100E3000B046504615D5CAF1000413E011980124BC
:100E40004AA3012801D16FEA0B010298119AC0E967
:100E50000031C0E9024206B0BDE8F09FCBF10000CE
:100E6000DFE704460021404A491842EB0450CDE92F
:100E7000001012E0E00707D032463B4640464946A4
:100E8000FFF7C7FA8046894632463B461046194668
:100E9000FFF7BFFA06460F466410002CEAD1DDE9E1
:100EA0000401DDE90023BAF1000F06DAFFF7B1FA19
:100EB00042464B46FFF7ADFA05E0FFF71CFB424602
:100EC0004B46FFF718FB04460E460022284BFFF75F
:100ED00099FB03D84FF0FF30014607E00022254B75
:100EE00020463146FFF7EEF9FFF774FB102409E0C6
:100EF000002C0ADB0A220023FFF77BF9039B303228
:100F00001A55641E50EA0102F2D1641C039AC4F11E
:100F100011031444119A012A03D0012208430DD170
:100F20000AE0084304D000204FF0110B119072E743
:100F3000A3EB0B056D1E0DE05B4504DD4FF00002D9
:100F400005F1010504E003DA4FF00002A5F1010507
:100F5000002AECD002981199C0E90231C0E900459D
:100F600079E70000000014400000F03F300000006E
:100F70000000F0430000E03F2DE9FF4F95B09B4695
:100F80008946064600250FE2252877D1002427460A
:100F9000F84A0121059400E0044316F8013F203B84
:100FA00001FA03F01042F7D130782A2811D06FF0FF
:100FB0002F033078A0F13002092A16D8059A44F0A0
:100FC000020402EB820203EB42021044761C0590FD
:100FD000EFE759F8042B0592002A03DA504244F453
:100FE0000054059044F00204761C30782E2816D167
:100FF00016F8010F44F004042A280DD06FF02F02D8
:101000003078A0F13003092B09D807EB870302EBF6
:101010004303C718761CF3E759F8047B761C307835
:101020006C280FD006DC4C2817D068280DD06A2811
:1010300014D104E0742810D07A280FD10DE044F4C4
:1010400000140AE044F4801401E044F4401472787F
:10105000824202D104F58014761C761C3078662812
:101060000BD013DC582877D009DC002875D0452830
:10107000F6D04628F4D047281AD19DE118E063281D
:1010800035D0642879D0652812D195E1702873D0C5
:1010900008DC6728F1D069286FD06E280DD06F2842
:1010A00006D1B5E073282CD0752875D0782874D077
:1010B0005A46179990476D1C75E1C4F302500228F7
:1010C00009D003280DD0D9F8001004280DD00D60E8
:1010D00009F1040967E1D9F80010EA17C1E90052E3
:1010E000F6E7D9F800100D80F2E70D70F0E719F877
:1010F000041B8DF8001000208DF80100EA46012045
:1011000003E059F804AB4FF0FF3061074FF00001E6
:1011100002D40DE008F101018846B9420FDA80459A
:10112000F8DB1AF808100029F4D108E008F10101F1
:1011300088468142FADB1AF808100029F6D1059892
:101140005B46A0EB080721463846179A00F094FA50
:10115000284400EB080507E04DE029E10DE01AF80E
:10116000010B5A4617999047B8F10108F7D25B4630
:1011700021463846179A13E142E00A220092C4F34E
:1011800002524FF0000A022A08D059F804CB032A71
:101190004FEAEC710AD00DE029E02AE009F10701DD
:1011A00021F00702F2E802C1914609E00FFA8CFC37
:1011B0004FEAEC71042A03D14FFA8CFC4FEAEC7130
:1011C000002907DA0A460021DCF1000C61EB02017C
:1011D0002D2202E0220504D52B228DF804200122C5
:1011E00003E0E20701D02022F7E7904659E00A2108
:1011F00002E010220DE010214FF0000A00910BE0F8
:1012000010224FF0000A44F004040827009203E083
:1012100008224FF0000A0092C4F30252022A05D0BD
:1012200059F804CB0021032A08D009E009F107018D
:1012300021F00702F2E802C1914605E01FFA8CFC9A
:10124000042A01D10CF0FF0C4FF00008220728D52A
:10125000702806D0009B83F0100353EA0A0305D0E0
:101260000EE040228DF80420012208E05CEA010231
:1012700006D030228DF804208DF805000222904619
:10128000009B83F0080353EA0A030AD15CEA0102D7
:1012900001D1620705D530228DF804204FF00108F6
:1012A0007F1E582804D034A003900EA802900DE0B1
:1012B00036A0F9E753466046009AFEF79AFF844647
:1012C0000398825C0298401E029002705CEA010062
:1012D000F0D1029806A9081A00F1200A600702D589
:1012E00024F4803400E00127574502DDA7EB0A0013
:1012F00000E0002000EB0A01009005984144401AEC
:101300000590E00306D45B462146179A059800F045
:10131000B3F90544002706E001A85A46C05D1799B5
:1013200090476D1C7F1C4745F6DBE0030CD55B4600
:101330002146179A059800F09FF9054404E03020F3
:101340005A46179990476D1C0099481E0090002935
:10135000F5DC08E0029802995A460078491C02918F
:10136000179990476D1CBAF10001AAF1010AF1DC4E
:1013700065E1000009280100303132333435363759
:1013800038396162636465660000000030313233D1
:101390003435363738394142434445460000000071
:1013A00000F058F90544761C307800287FF4ECAD45
:1013B00019B02846BDE8F08F620700D4062709F16E
:1013C000070222F0070CFCE80223E14603F0004884
:1013D0005FEA080C02D00FF2702C0DE05FEA045CAB
:1013E00002D50FF2682C07E05FEAC47C02D00FF24E
:1013F000602C01E0AFF2700C4FF0FF3823F0004397
:10140000CDF850C065280CD006DC452809D0462808
:101410001DD047283DD13DE0662818D067287ED1F1
:1014200038E00021112F01DB112000E0781CCDE90C
:10143000000106A90EA8FFF7DDFCDDE90F010E9AF9
:1014400003910021009207F1010A04914DE04FF051
:1014500000400097CDE9011006A90EA8FFF7CAFCCD
:10146000DDE90F0203920E9B11990022DDF80CA01A
:101470000093049211B9791C00EB010AB7EB0A0042
:1014800004D4C0F1FF3007F1010A0490AAEB070071
:10149000019044E0012F00DA01270021112F01DD26
:1014A000112000E03846CDE9000106A90EA8FFF79B
:1014B000A1FCDDE90F010E9A039100210491009235
:1014C000BA4621070CD40399514500DA8A46BAF18D
:1014D000010F05DD009AAAF10101515C302908D005
:1014E000B84202DA10F1040F06DA0121CDE9011049
:1014F00015E0AAF10101E9E7002805DC049901449F
:101500000491AAEB000102E0411C514500DD8A462E
:101510000499401A401C01904FF0004002902007AF
:1015200004D40198504501DBCDF8048000208DF8EB
:101530004F0002980DF14F07B0F1004F25D02B203E
:101540000E9002984FF0020800280CDA40420290F8
:101550002D200E9007E00A210298FEF734FE30316C
:10156000029007F8011DB8F10001A8F10108F2DCB2
:1015700002980028EFD1791E0E980870307800F09C
:10158000200040F0450007F8020D12A8C01B00F132
:1015900007081498007800B1012000EB0A010198B7
:1015A00001EBE07105984144401A401E0590E003AC
:1015B00006D45B462146179A059800F05DF805446D
:1015C0001498007818B15A46179990476D1CE0039B
:1015D00024D55B462146179A059800F04DF805443E
:1015E0001CE00498002807DBDDE90301884203DDE5
:1015F0000098405C179901E0179930205A469047AF
:10160000049805F10105401C04900198401E0190CA
:1016100004D12E205A46179990476D1CBAF100014B
:10162000AAF1010ADDDC05E017F8010B5A4617990B
:1016300090476D1CB8F10001A8F10108F4DC5B468D
:101640002146179A0598ABE62D0000002B000000FC
:10165000200000002DE9F041044600251E461746F3
:10166000880404D405E039462020B0476D1C641E70
:10167000F9D52846BDE8F0812DE9F0410446002562
:101680001E469046C80301D5302700E02027880475
:1016900004D505E041463846B0476D1C641EF9D5B7
:1016A0002846BDE8F0810146086870472DE9F84FEB
:1016B00006460C4615464FF0000AD146CB460020A0
:1016C000009000F001FA06F00109A6EB0906F70AFE
:1016D00003E0F80200F082F97F1C7019B7EBD02FFD
:1016E000F7D9B9F1000F1CD02078000200903046E5
:1016F000009900F0FDF8804640F2053000F0E8F86F
:101700004FF4417000F0E4F840F2023000F0E0F8ED
:10171000B8F1000F01D0B2466FE0B61CA5EB090589
:10172000641C002728E014F82710B800401C205C37
:1017300041EA0021B800801C205C41EA0041B80069
:10174000C01C205C41EA006B5946304600F0DEF9CF
:101750008046361D40F2053000F0BAF84FF4417073
:1017600000F0B6F840F2023000F0B2F8B8F1000F25
:1017700001D0B24641E07F1CB7EB950FD3D305F003
:101780000300C0B305F00300012804D0022806D0EE
:10179000032816D10AE0681E14F800B014E0A81E51
:1017A000215C681E205C41EA002B0DE0E81E215CF4
:1017B000A81E205C41EA0021681E205C41EA004B23
:1017C00002E04FF0000B00BF00BF5946304600F06A
:1017D0009DF9804640F2053000F07AF84FF44170F0
:1017E00000F076F840F2023000F072F8B8F1000F25
:1017F00002D0B24601E0FFE700BF00F0D9F8504642
:10180000BDE8F88F70B504460E4600F05DF9E50AB4
:1018100003E0E80200F0E2F86D1CA019B5EBD02F50
:10182000F7D900F0C5F870BD00B50346012200BF2E
:1018300000F00CF802465B1E012A01D1002BF7D103
:10184000012A00D10422104600BD000000200A49F0
:10185000C96801F0010109B101200CE00649C9681D
:1018600001F0100109B1032005E00349C96801F046
:10187000040101B1022070470020024000B5034678
:10188000012200BF00F00CF802465B1E012A01D1C4
:10189000002BF7D1012A00D10422104600BD000020
:1018A00000200A49C96C01F0010109B101200CE0D6
:1018B0000649C96C01F0100109B1032005E0034994
:1018C000C96C01F0040101B1022070470020024000
:1018D000064A02EB9011096800F01F0301229A40AA
:1018E0001143024B03EB901211607047002002403D
:1018F00070B504460D4600262A480088B0F5007FE2
:1019000035D92948844219D24FF47020FFF78CFF53
:101910000646002E43D12548006940F001002349C6
:10192000086125804FF47020FFF77EFF06461F48B0
:10193000006920F001001D49086130E04FF470207B
:10194000FFF79CFF064656BB1848006D40F00100AB
:101950001649086525804FF47020FFF78FFF064673
:101960001248006D20F001001049086517E04FF49F
:101970007020FFF759FF06468EB90C48006940F009
:1019800001000A49086125804FF47020FFF74CFFE1
:1019900006460648006920F0010004490861304607
:1019A00070BD0000E0F7FF1FFFFF070800200240A6
:1019B0000848006940F08000064908610648008830
:1019C000B0F5007F04D90846006D40F0800008653E
:1019D0007047000000200240E0F7FF1F30B50546C9
:1019E00036480088B0F5007F48D9354885421ED278
:1019F0004FF47020FFF718FF0446002C5BD13148EC
:101A0000006940F002002F490861084645610069FD
:101A100040F0400008614FF47020FFF705FF0446D6
:101A20002848006920F002002649086143E04FF48D
:101A30007020FFF723FF0446002C3CD12148006DA5
:101A400040F002001F49086508464565C06900F07E
:101A5000020008B1084645611A48006D40F0400098
:101A6000184908654FF47020FFF708FF0446154831
:101A7000006D20F00200134908651CE04FF470204F
:101A8000FFF7D2FE0446B4B90E48006940F00200E8
:101A90000C49086108464561006940F04000086152
:101AA0004FF47020FFF7C0FE04460648006920F09E
:101AB000020004490861204630BD0000E0F7FF1F26
:101AC000FFFF0708002002400C48006900F080007A
:101AD00020B10B48094948600A4848600A48008814
:101AE000B0F5007F09D90548006D00F0800020B1F5
:101AF0000348024948640348486470470020024094
:101B000023016745AB89EFCDE0F7FF1F70B50446B1
:101B10000D4600262A480088B0F5007F35D92948AF
:101B2000844219D24FF47020FFF77EFE0646002E45
:101B300043D12548006940F0010023490861256030
:101B40004FF47020FFF770FE06461F48006920F032
:101B500001001D49086130E04FF47020FFF78EFE50
:101B6000064656BB1848006D40F00100164908654E
:101B700025604FF47020FFF781FE06461248006D85
:101B800020F001001049086517E04FF47020FFF7BE
:101B90004BFE06468EB90C48006940F001000A4928
:101BA000086125604FF47020FFF73EFE06460648A8
:101BB000006920F0010004490861304670BD000052
:101BC000E0F7FF1FFFFF07080020024070B5044642
:101BD0000D462146054800F092FA00BF0721034850
:101BE00000F0DFFA0028F9D0002070BD0038014075
:101BF000F0B5044616460025002201F00F0501F05D
:101C0000100747B1042E05D145F00305E76B1F43CC
:101C1000E76300E0354300201EE0012787401F40B6
:101C2000C7B122684FEA800C0F2707FA0CF7BA43B6
:101C3000870005FA07F73A43282904D1012787408E
:101C40001F40676105E0482903D1012787401F40F5
:101C500027612260471CB8B20828DED3082022E0A2
:101C6000012787401F40E7B16268A0F108074FEAEB
:101C7000870C0F2707FA0CF7BA43A0F10807BF003B
:101C800005FA07F73A43282904D1012787401F4066
:101C9000676105E0482903D1012787401F4027617C
:101CA0006260471CB8B21028DAD3F0BD4FF4407020
:101CB00000F01CF84FF4E13000F0D4F914E0FEF726
:101CC00089FEA0F5B4405A3840B1A0F503408338EE
:101CD00040B1A0F58850113828B900E003E0FEF7C4
:101CE000AFFD00E000BF00BFE9E70000024901438B
:101CF000024A1160704700000000FA050CED00E098
:101D00002DE9F04F8CB0074600200A904AA090E8D9
:101D1000004CC068CDE905BECDF810A007900FF2C9
:101D20001C1ADAE9000ACDE9020A0FF2101ADAE900
:101D3000000ACDE9000A44484068C0F381000B90D6
:101D40000B9820B1012804D002283FD103E03F4A7C
:101D50003EE03E4A3CE03C48406800F4803CBCF534
:101D6000803F12D13848C06A00F08048B8F1000FB7
:101D700001D1364C00E0364C3348406800F400395D
:101D8000B9F5003F02D1334C00E0324C2E48406898
:101D9000C0F383412C48406800F0006008B141F076
:101DA00010012948406800F0804008B141F020014E
:101DB0000F2901D2891C06E00F2903D33E2901D83F
:101DC000491C00E03F2104FB01F201E01F4A00BF73
:101DD00000BF1D484068C0F3031504A8465D22FA01
:101DE00006F319484068C0F3022502A8465D23FAAD
:101DF00006F0099014484068C0F3C2251DF805603C
:101E000023FA06F0089037B1012F06D0022F06D032
:101E1000032F0AD106E00A9208E00A9306E0099827
:101E20000A9003E008980A9000E000BF00BF0A98FB
:101E30000CB0BDE8F08F00000000000000000000C2
:101E400001020304060708090010024000127A008C
:101E5000006CDC0200093D00064A02EB90110968A3
:101E600000F01F0301229A401143024B03EB901232
:101E70001160704700100240064A02EB9011096899
:101E800000F01F0301229A409143024B03EB901292
:101E90001160704700100240064A02EB9011096879
:101EA00000F01F0301229A401143024B03EB9012F2
:101EB0001160704700100240002000213F4A126864
:101EC00042F480323D4B1A6000BF401C3B4A12680E
:101ED00002F4003119B94FF6FF729042F5D1374A3A
:101EE000126802F400320AB900BFFEE7334AD26931
:101EF00042F08052314BDA61314A126842F440427A
:101F00002F4B1A602D4A52682C4B5A601A46526861
:101F10005A601A46526842F480625A601A46526801
:101F200022F440325A601A46526842F440325A60F3
:101F30001A465268234B1A40204B5A601A46526880
:101F4000214B1A431D4B5A601A46126842F08072A8
:101F50001A6000BF194A126802F00072002AF9D014
:101F6000174A126842F48032154B1A6000BF144AB7
:101F7000526802F48032002AF9D0114A126842F401
:101F800000320F4B1A6000BF0D4A526802F4003253
:101F9000002AF9D0094A526822F00302074B5A601E
:101FA0001A46526842F002025A6000BF034A526861
:101FB00002F00802002AF9D0704700000010024029
:101FC00000700040FFFFC3B70000340810B5FFF7F2
:101FD00073FF10BD2DE9F04704460D460027B846B3
:101FE000B94600261D49601A8C421CD006DC1C48EC
:101FF000204470B1B0F5806F1FD10FE0B0F5806F55
:1020000016D0B0F56C4F18D10320FFF779FE0746C4
:1020100014E00220FFF774FE07460FE00220FFF7EE
:102020006FFE07460AE00220FFF76AFE074605E05A
:102030000220FFF765FE074600E000BF00BF07EB88
:102040005500B0FBF5F64FF6F07006EA000806F012
:102050000F0948EA0900A060BDE8F087004C004085
:1020600000BCFFBF10B5044640F20260FFF7F4FE6B
:102070004FF4C060FFF7F0FE40F20E60FFF7ECFE99
:102080004FF40073032218211848FFF7B1FD4FF4F5
:102090008063032204211548FFF7AAFD144800F0CD
:1020A00033F821461248FFF795FF0021104800F051
:1020B000B7F800210E4800F0A3F800210C4800F00A
:1020C0008FF800210A4800F083F80021084800F04A
:1020D00077F80421064800F08BF80821044800F046
:1020E00097F8034800F058F810BD000000080140C0
:1020F0000038014001464868C0F308007047C1F34A
:10210000080242607047000010B504462049601A7A
:102110008C4228D006DC1F48204490B1B0F5806F77
:1021200033D117E0B0F5806F26D0B0F56C4F2CD1CD
:1021300040F20E30FFF7B0FE40F20E30FFF79CFE8B
:1021400024E040F21140FFF7A7FE40F21140FFF7F4
:1021500093FE1BE040F21240FFF79EFE40F2124059
:10216000FFF78AFE12E040F21340FFF795FE40F2BF
:102170001340FFF781FE09E040F21440FFF78CFEA8
:1021800040F21440FFF778FE00E000BF00BF10BD32
:10219000004C004000BCFFBFC16841F40051C16069
:1021A000704710B5024602EB9110006801F01F0461
:1021B0000123A340184008B1012010BD0020FCE716
:1021C0000A460021416921F40071114341617047C1
:1021D0000A460021416921F4807111434161704731
:1021E000C26822F4C062C260C2680A43C26070471B
:1021F0000A460021C16821F004011143C160704703
:10220000026922F44052026102690A430261704786
:102210000A460021C16821F008011143C1607047DE
:10222000C26822F48052C260C2680A43C26070472A
:1022300000404040404040404040414141414140D9
:10224000404040404040404040404040404040408E
:10225000400502020202020202020202020202021D
:102260000220202020202020202020020202020222
:10227000020290909090909010101010101010107A
:102280001010101010101010101010100202020286
:1022900002028888888888880808080808080808CA
:1022A00008080808080808080808080802020202C6
:1022B00040000000312200080A0D2050726F677242
:1022C000616D6D696E6720436F6D706C65746564D8
:1022D000205375636365737366756C6C79210A0DA1
:1022E0002D2D2D2D2D2D2D2D2D2D2D2D2D2D2D2D1E
:1022F0002D2D2D2D2D2D2D2D2D2D2D2D2D2D2D2D0E
:102300000D0A204E616D653A200000002C23000864
:102310000000002008000000D40D0008342300084D
:102320000800002000090000E40D00080000000083
:0423300000000000A9
:04000005080001519D
:00000001FF
